{
  "_format": "hh-sol-artifact-1",
  "contractName": "QueryManager",
  "sourceName": "contracts/QueryManager.sol",
  "abi": [
    {
      "inputs": [],
      "stateMutability": "nonpayable",
      "type": "constructor"
    },
    {
      "anonymous": false,
      "inputs": [
        {
          "indexed": false,
          "internalType": "uint256",
          "name": "value",
          "type": "uint256"
        },
        {
          "indexed": false,
          "internalType": "address",
          "name": "to",
          "type": "address"
        },
        {
          "indexed": false,
          "internalType": "uint256",
          "name": "queryIndex",
          "type": "uint256"
        }
      ],
      "name": "DistributePay",
      "type": "event"
    },
    {
      "anonymous": false,
      "inputs": [
        {
          "indexed": false,
          "internalType": "address",
          "name": "newRecipient",
          "type": "address"
        },
        {
          "indexed": false,
          "internalType": "uint256",
          "name": "newFee",
          "type": "uint256"
        }
      ],
      "name": "FeeInfoUpdated",
      "type": "event"
    },
    {
      "anonymous": false,
      "inputs": [
        {
          "indexed": false,
          "internalType": "uint8",
          "name": "version",
          "type": "uint8"
        }
      ],
      "name": "Initialized",
      "type": "event"
    },
    {
      "anonymous": false,
      "inputs": [
        {
          "indexed": false,
          "internalType": "uint256",
          "name": "value",
          "type": "uint256"
        },
        {
          "indexed": false,
          "internalType": "address",
          "name": "user",
          "type": "address"
        },
        {
          "indexed": false,
          "internalType": "uint256",
          "name": "queryIndex",
          "type": "uint256"
        }
      ],
      "name": "PaidQuery",
      "type": "event"
    },
    {
      "anonymous": false,
      "inputs": [
        {
          "indexed": false,
          "internalType": "uint256",
          "name": "value",
          "type": "uint256"
        },
        {
          "indexed": false,
          "internalType": "address",
          "name": "user",
          "type": "address"
        },
        {
          "indexed": false,
          "internalType": "uint256",
          "name": "queryIndex",
          "type": "uint256"
        }
      ],
      "name": "RefundQuery",
      "type": "event"
    },
    {
      "anonymous": false,
      "inputs": [
        {
          "indexed": true,
          "internalType": "bytes32",
          "name": "role",
          "type": "bytes32"
        },
        {
          "indexed": true,
          "internalType": "bytes32",
          "name": "previousAdminRole",
          "type": "bytes32"
        },
        {
          "indexed": true,
          "internalType": "bytes32",
          "name": "newAdminRole",
          "type": "bytes32"
        }
      ],
      "name": "RoleAdminChanged",
      "type": "event"
    },
    {
      "anonymous": false,
      "inputs": [
        {
          "indexed": true,
          "internalType": "bytes32",
          "name": "role",
          "type": "bytes32"
        },
        {
          "indexed": true,
          "internalType": "address",
          "name": "account",
          "type": "address"
        },
        {
          "indexed": true,
          "internalType": "address",
          "name": "sender",
          "type": "address"
        }
      ],
      "name": "RoleGranted",
      "type": "event"
    },
    {
      "anonymous": false,
      "inputs": [
        {
          "indexed": true,
          "internalType": "bytes32",
          "name": "role",
          "type": "bytes32"
        },
        {
          "indexed": true,
          "internalType": "address",
          "name": "account",
          "type": "address"
        },
        {
          "indexed": true,
          "internalType": "address",
          "name": "sender",
          "type": "address"
        }
      ],
      "name": "RoleRevoked",
      "type": "event"
    },
    {
      "anonymous": false,
      "inputs": [
        {
          "indexed": false,
          "internalType": "address",
          "name": "user",
          "type": "address"
        },
        {
          "indexed": false,
          "internalType": "uint256",
          "name": "queryIndex",
          "type": "uint256"
        }
      ],
      "name": "SuccessfulQuery",
      "type": "event"
    },
    {
      "inputs": [],
      "name": "DEFAULT_ADMIN_ROLE",
      "outputs": [
        {
          "internalType": "bytes32",
          "name": "",
          "type": "bytes32"
        }
      ],
      "stateMutability": "view",
      "type": "function"
    },
    {
      "inputs": [],
      "name": "PPC_ROLE",
      "outputs": [
        {
          "internalType": "bytes32",
          "name": "",
          "type": "bytes32"
        }
      ],
      "stateMutability": "view",
      "type": "function"
    },
    {
      "inputs": [],
      "name": "currentIndex",
      "outputs": [
        {
          "internalType": "uint256",
          "name": "",
          "type": "uint256"
        }
      ],
      "stateMutability": "view",
      "type": "function"
    },
    {
      "inputs": [],
      "name": "eoaBond",
      "outputs": [
        {
          "internalType": "contract EoaBond",
          "name": "",
          "type": "address"
        }
      ],
      "stateMutability": "view",
      "type": "function"
    },
    {
      "inputs": [],
      "name": "feeBps",
      "outputs": [
        {
          "internalType": "uint256",
          "name": "",
          "type": "uint256"
        }
      ],
      "stateMutability": "view",
      "type": "function"
    },
    {
      "inputs": [],
      "name": "feeRecipient",
      "outputs": [
        {
          "internalType": "address",
          "name": "",
          "type": "address"
        }
      ],
      "stateMutability": "view",
      "type": "function"
    },
    {
      "inputs": [
        {
          "internalType": "address",
          "name": "user",
          "type": "address"
        }
      ],
      "name": "getAllUserQueries",
      "outputs": [
        {
          "components": [
            {
              "internalType": "uint256",
              "name": "queryIndex",
              "type": "uint256"
            },
            {
              "internalType": "string",
              "name": "ppcCmd",
              "type": "string"
            },
            {
              "internalType": "string",
              "name": "result",
              "type": "string"
            },
            {
              "internalType": "enum QueryManager.QueryStatus",
              "name": "status",
              "type": "uint8"
            },
            {
              "internalType": "uint256",
              "name": "totalPaid",
              "type": "uint256"
            },
            {
              "internalType": "uint256[]",
              "name": "bucketIds",
              "type": "uint256[]"
            },
            {
              "internalType": "uint256[]",
              "name": "policyIndexes",
              "type": "uint256[]"
            }
          ],
          "internalType": "struct QueryManager.Query[]",
          "name": "",
          "type": "tuple[]"
        }
      ],
      "stateMutability": "view",
      "type": "function"
    },
    {
      "inputs": [
        {
          "internalType": "uint256",
          "name": "queryIndex",
          "type": "uint256"
        }
      ],
      "name": "getQuery",
      "outputs": [
        {
          "components": [
            {
              "internalType": "uint256",
              "name": "queryIndex",
              "type": "uint256"
            },
            {
              "internalType": "string",
              "name": "ppcCmd",
              "type": "string"
            },
            {
              "internalType": "string",
              "name": "result",
              "type": "string"
            },
            {
              "internalType": "enum QueryManager.QueryStatus",
              "name": "status",
              "type": "uint8"
            },
            {
              "internalType": "uint256",
              "name": "totalPaid",
              "type": "uint256"
            },
            {
              "internalType": "uint256[]",
              "name": "bucketIds",
              "type": "uint256[]"
            },
            {
              "internalType": "uint256[]",
              "name": "policyIndexes",
              "type": "uint256[]"
            }
          ],
          "internalType": "struct QueryManager.Query",
          "name": "",
          "type": "tuple"
        }
      ],
      "stateMutability": "view",
      "type": "function"
    },
    {
      "inputs": [
        {
          "internalType": "uint256",
          "name": "queryIndex",
          "type": "uint256"
        }
      ],
      "name": "getQueryBucketIds",
      "outputs": [
        {
          "internalType": "uint256[]",
          "name": "",
          "type": "uint256[]"
        }
      ],
      "stateMutability": "view",
      "type": "function"
    },
    {
      "inputs": [
        {
          "internalType": "address",
          "name": "user",
          "type": "address"
        },
        {
          "internalType": "uint256",
          "name": "index",
          "type": "uint256"
        }
      ],
      "name": "getQueryByUserIndex",
      "outputs": [
        {
          "components": [
            {
              "internalType": "uint256",
              "name": "queryIndex",
              "type": "uint256"
            },
            {
              "internalType": "string",
              "name": "ppcCmd",
              "type": "string"
            },
            {
              "internalType": "string",
              "name": "result",
              "type": "string"
            },
            {
              "internalType": "enum QueryManager.QueryStatus",
              "name": "status",
              "type": "uint8"
            },
            {
              "internalType": "uint256",
              "name": "totalPaid",
              "type": "uint256"
            },
            {
              "internalType": "uint256[]",
              "name": "bucketIds",
              "type": "uint256[]"
            },
            {
              "internalType": "uint256[]",
              "name": "policyIndexes",
              "type": "uint256[]"
            }
          ],
          "internalType": "struct QueryManager.Query",
          "name": "",
          "type": "tuple"
        }
      ],
      "stateMutability": "view",
      "type": "function"
    },
    {
      "inputs": [
        {
          "internalType": "uint256",
          "name": "queryIndex",
          "type": "uint256"
        }
      ],
      "name": "getQueryPolicyIndexes",
      "outputs": [
        {
          "internalType": "uint256[]",
          "name": "",
          "type": "uint256[]"
        }
      ],
      "stateMutability": "view",
      "type": "function"
    },
    {
      "inputs": [
        {
          "internalType": "bytes32",
          "name": "role",
          "type": "bytes32"
        }
      ],
      "name": "getRoleAdmin",
      "outputs": [
        {
          "internalType": "bytes32",
          "name": "",
          "type": "bytes32"
        }
      ],
      "stateMutability": "view",
      "type": "function"
    },
    {
      "inputs": [
        {
          "internalType": "address",
          "name": "user",
          "type": "address"
        }
      ],
      "name": "getUserIndex",
      "outputs": [
        {
          "internalType": "uint256",
          "name": "",
          "type": "uint256"
        }
      ],
      "stateMutability": "view",
      "type": "function"
    },
    {
      "inputs": [
        {
          "internalType": "bytes32",
          "name": "role",
          "type": "bytes32"
        },
        {
          "internalType": "address",
          "name": "account",
          "type": "address"
        }
      ],
      "name": "grantRole",
      "outputs": [],
      "stateMutability": "nonpayable",
      "type": "function"
    },
    {
      "inputs": [
        {
          "internalType": "bytes32",
          "name": "role",
          "type": "bytes32"
        },
        {
          "internalType": "address",
          "name": "account",
          "type": "address"
        }
      ],
      "name": "hasRole",
      "outputs": [
        {
          "internalType": "bool",
          "name": "",
          "type": "bool"
        }
      ],
      "stateMutability": "view",
      "type": "function"
    },
    {
      "inputs": [
        {
          "internalType": "address",
          "name": "_usdc",
          "type": "address"
        }
      ],
      "name": "initialize",
      "outputs": [],
      "stateMutability": "nonpayable",
      "type": "function"
    },
    {
      "inputs": [
        {
          "internalType": "uint256",
          "name": "userIndex",
          "type": "uint256"
        },
        {
          "internalType": "string",
          "name": "ppcCmd",
          "type": "string"
        },
        {
          "internalType": "uint256",
          "name": "payAmount",
          "type": "uint256"
        },
        {
          "internalType": "uint256[]",
          "name": "bucketIds",
          "type": "uint256[]"
        },
        {
          "internalType": "uint256[]",
          "name": "policyIndexes",
          "type": "uint256[]"
        }
      ],
      "name": "payQuery",
      "outputs": [],
      "stateMutability": "nonpayable",
      "type": "function"
    },
    {
      "inputs": [
        {
          "internalType": "uint256",
          "name": "queryIndex",
          "type": "uint256"
        },
        {
          "internalType": "string",
          "name": "result",
          "type": "string"
        }
      ],
      "name": "postQueryResult",
      "outputs": [],
      "stateMutability": "nonpayable",
      "type": "function"
    },
    {
      "inputs": [
        {
          "internalType": "uint256",
          "name": "queryIndex",
          "type": "uint256"
        },
        {
          "internalType": "string",
          "name": "error",
          "type": "string"
        }
      ],
      "name": "refundFailedQuery",
      "outputs": [],
      "stateMutability": "nonpayable",
      "type": "function"
    },
    {
      "inputs": [
        {
          "internalType": "bytes32",
          "name": "role",
          "type": "bytes32"
        },
        {
          "internalType": "address",
          "name": "account",
          "type": "address"
        }
      ],
      "name": "renounceRole",
      "outputs": [],
      "stateMutability": "nonpayable",
      "type": "function"
    },
    {
      "inputs": [
        {
          "internalType": "bytes32",
          "name": "role",
          "type": "bytes32"
        },
        {
          "internalType": "address",
          "name": "account",
          "type": "address"
        }
      ],
      "name": "revokeRole",
      "outputs": [],
      "stateMutability": "nonpayable",
      "type": "function"
    },
    {
      "inputs": [
        {
          "internalType": "address",
          "name": "newAddress",
          "type": "address"
        }
      ],
      "name": "setEoaBondContract",
      "outputs": [],
      "stateMutability": "nonpayable",
      "type": "function"
    },
    {
      "inputs": [
        {
          "internalType": "uint256",
          "name": "_feeBps",
          "type": "uint256"
        },
        {
          "internalType": "address",
          "name": "_recipient",
          "type": "address"
        }
      ],
      "name": "setFeeAndRecipient",
      "outputs": [],
      "stateMutability": "nonpayable",
      "type": "function"
    },
    {
      "inputs": [
        {
          "internalType": "bytes4",
          "name": "interfaceId",
          "type": "bytes4"
        }
      ],
      "name": "supportsInterface",
      "outputs": [
        {
          "internalType": "bool",
          "name": "",
          "type": "bool"
        }
      ],
      "stateMutability": "view",
      "type": "function"
    },
    {
      "inputs": [],
      "name": "usdc",
      "outputs": [
        {
          "internalType": "contract IERC20Upgradeable",
          "name": "",
          "type": "address"
        }
      ],
      "stateMutability": "view",
      "type": "function"
    }
  ],
  "bytecode": "0x608080604052346100c2576000549060ff8260081c16610070575060ff80821603610035575b604051612ca49081620000c88239f35b60ff90811916176000557f7f26b83ff96e1f2b6a682f133852f6798a09c465da95921460cefb3847402498602060405160ff8152a138610025565b62461bcd60e51b815260206004820152602760248201527f496e697469616c697a61626c653a20636f6e747261637420697320696e697469604482015266616c697a696e6760c81b6064820152608490fd5b600080fdfe608080604052600436101561001357600080fd5b60003560e01c90816301ffc9a714611d1957508063248a9ca314611cea57806324a9d85314611ccc57806326987b6014611cae578063273ce163146116f457806328ba3b541461160d578063292808a1146113895780632f2ff15d146112e857806336568abe14611256578063379917c51461122e5780633c9f1f87146112045780633e413bee146111db57806346904840146111b25780634b0d58d514611189578063627be501146111605780637812c4a11461111057806384c6e0d8146110a35780639019cce81461054857806391d14854146104fb578063a217fddf146104df578063aeb2ffc1146104a8578063c4d66de814610276578063d547741f14610235578063dbe070fb146101715763ee9907a41461013257600080fd5b3461016c57602036600319011261016c576001600160a01b03610153611dcc565b1660005260cd6020526020604060002054604051908152f35b600080fd5b3461016c57604036600319011261016c5760043561018d611de2565b9061019661212e565b61271081116101f75760ce81905560cf80546001600160a01b0319166001600160a01b039390931692831790556040805192835260208301919091527f309b6393e1f460ba524a92be7cf63622f4a3aecc37c0c13bfc227ed4d86aad6291a1005b60405162461bcd60e51b81526020600482015260166024820152754665652063616e6e6f7420657863656564203130302560501b6044820152606490fd5b3461016c57604036600319011261016c57610274600435610254611de2565b9080600052606560205261026f600160406000200154612252565b6123ea565b005b3461016c5760208060031936011261016c57610290611dcc565b6000549060ff808360081c16159283809461049c575b8015610486575b1561042a5760ff198181166001176000559084610418575b506102ed8260005460081c166102da816125bd565b6102e3816125bd565b60016097556125bd565b600080526065855260406000203360005285528160406000205416156103dc575b600080516020612c4f8339815191529182600052606586526040600020336000528652604060002054161561039d575b505060c980546001600160a01b0319166001600160a01b039290921691909117905561036657005b7f7f26b83ff96e1f2b6a682f133852f6798a09c465da95921460cefb38474024989061ff00196000541660005560405160018152a1005b81600052606585526040600020336000528552600160406000209182541617905533903390600080516020612c2f833981519152600080a4838061033e565b60008052606585526040600020336000528552604060002060018282541617905533336000600080516020612c2f8339815191528180a461030e565b61ffff191661010117600055856102c5565b60405162461bcd60e51b815260048101869052602e60248201527f496e697469616c697a61626c653a20636f6e747261637420697320616c72656160448201526d191e481a5b9a5d1a585b1a5e995960921b6064820152608490fd5b50303b1580156102ad57506001828216146102ad565b506001828216106102a6565b3461016c57602036600319011261016c576104db6104c7600435612a73565b604051918291602083526020830190611e74565b0390f35b3461016c57600036600319011261016c57602060405160008152f35b3461016c57604036600319011261016c57610514611de2565b600435600052606560205260406000209060018060a01b0316600052602052602060ff604060002054166040519015158152f35b3461016c5760a036600319011261016c576024356001600160401b03811161016c57610578903690600401611d6c565b906064356001600160401b03811161016c57610598903690600401611ef5565b926084356001600160401b03811161016c576105b8903690600401611ef5565b6105c061261d565b85810361104f5760ca5460009081906001600160a01b03165b888210610bfa57505060443503610bbe573360005260cd60205260406000205460043503610b845760c9546040516323b872dd60e01b8152336004820152306024820152604480359082015290602090829060649082906000906001600160a01b03165af1908115610b7857600091610b3e575b5015610ae65760cc54943360005260cd602052604060002094604051976106738961235d565b87895261067f8661246d565b61068c60405191826123c9565b868152368785011161016c5760006020886106e9996106dd97838601378301015260208a01526040516106be81612393565b6000815260408a0152600160608a015260443560808a01523691612697565b60a08701523691612697565b60c08401528054600160401b8110156109615761070b916001820181556126e5565b91909161094b578251825560208301519283516001600160401b038111610961576107468161073d6001870154612701565b60018701612752565b6020601f8211600114610a77578192939495600092610a6c575b50508160011b916000199060031b1c19161760018401555b60408101519283516001600160401b038111610961576107a88161079f6002850154612701565b60028501612752565b6020601f82116001146109fd5781929394956000926109f2575b50508160011b916000199060031b1c19161760028201555b60038101606083015160048110156109dc5760ff801983541691161790556080820151600482015560a08201518051906001600160401b03821161096157600160401b82116109615760209060058401548360058601558084106109bc575b500160058301600052602060002060005b8381106109a85760c08601518051889160068801906001600160401b03831161096157600160401b831161096157602090825484845580851061098b575b500190600052602060002060005b83811061097757604051856108aa82612378565b3382526020820190600435825260cc54600160401b811015610961578060016108d6920160cc55612799565b61094b57925183546001600160a01b0319166001600160a01b0391909116178355905160019290920191909155604080516044358152336020820152908101919091527f414cbe13766319becf7803190af5a9274d3ce41bca3adf6f85e5ef26d51415249080606081015b0390a16001609755005b634e487b7160e01b600052600060045260246000fd5b634e487b7160e01b600052604160045260246000fd5b600190602084519401938184015501610896565b6109a290846000528584600020918201910161273b565b85610888565b60019060208451940193818401550161084a565b6109d690600586016000528484600020918201910161273b565b86610839565b634e487b7160e01b600052602160045260246000fd5b0151905085806107c2565b6002830160005260206000209060005b601f1984168110610a54575060019394959683601f19811610610a3b575b505050811b0160028201556107da565b015160001960f88460031b161c19169055858080610a2b565b9091602060018192858b015181550193019101610a0d565b015190508580610760565b6001850160005260206000209060005b601f1984168110610ace575060019394959683601f19811610610ab5575b505050811b016001840155610778565b015160001960f88460031b161c19169055858080610aa5565b9091602060018192858b015181550193019101610a87565b60405162461bcd60e51b815260206004820152602a60248201527f4661696c656420746f207472616e7366657220746f6b656e7320746f207468696044820152691cc818dbdb9d1c9858dd60b21b6064820152608490fd5b90506020813d602011610b70575b81610b59602093836123c9565b8101031261016c57610b6a90612673565b8761064d565b3d9150610b4c565b6040513d6000823e3d90fd5b60405162461bcd60e51b8152602060048201526012602482015271092dcecc2d8d2c840eae6cae440d2dcc8caf60731b6044820152606490fd5b60405162461bcd60e51b8152602060048201526014602482015273125b98dbdc9c9958dd081c185e48185b5bdd5b9d60621b6044820152606490fd5b939590979294610c0e8985849a959a6127c7565b60405163696412bd60e11b815290356004820152600081602481895afa8015610b7857610c509160009161102c575b50610c498b898b6127c7565b3590612850565b519660405163d3e8948360e01b8152886004820152608080826024818b5afa918215610b785760009b600091600093600095610ff0575b505090610c9391612460565b9a421015610fba576001600160a01b031615610f7d57610f405760405163796d749b60e01b8152336004820152966020886024818a5afa978815610b7857600098610f04575b5060405198636f6bfa5760e11b8a5260048a01526000896024818a5afa988915610b7857600099610e55575b5060009960005b8a51811015610e43576001600160a01b03610d27828d612850565b51166001600160a01b038b1614610d4657610d41906127b8565b610d0c565b90959a506000929794998392979c949950610d688260018060a01b0392612850565b511690610de060405192610d7b84612378565b6016845275616c6c6f776564416464726573735b25735d3a20257360501b6020850152604051928391610dc7602084019663038fd88960e31b8852606060248601526084850190611e1b565b916044840152606483015203601f1981018352826123c9565b51906a636f6e736f6c652e6c6f675afa5060015b15610e0857610e02906127b8565b906105d9565b60405162461bcd60e51b8152602060048201526013602482015272556e617574686f72697a65642061636365737360681b6044820152606490fd5b50949991969398509499919650610df4565b9098503d806000833e610e6881836123c9565b81019060208183031261016c578051916001600160401b03831161016c5780601f84840101121561016c578282015191610ea183612680565b93610eaf60405195866123c9565b838552602085019260208560051b83850101011161016c57602081830101925b60208560051b83850101018410610eec575050505050978b610d05565b60208091610ef986612864565b815201930192610ecf565b9097506020813d602011610f38575b81610f20602093836123c9565b8101031261016c57610f3190612864565b968b610cd9565b3d9150610f13565b60405162461bcd60e51b8152602060048201526015602482015274141bdb1a58de481a5cc819195858dd1a5d985d1959605a1b6044820152606490fd5b60405162461bcd60e51b8152602060048201526015602482015274141bdb1a58de48191bd95cc81b9bdd08195e1a5cdd605a1b6044820152606490fd5b60405162461bcd60e51b815260206004820152600e60248201526d141bdb1a58de48195e1c1a5c995960921b6044820152606490fd5b9194509150610c939c506110199250803d10611025575b61101181836123c9565b810190612878565b929c929390928f610c87565b503d611007565b61104991503d806000833e61104181836123c9565b8101906127d7565b8b610c3d565b60405162461bcd60e51b815260206004820152602660248201527f4275636b657473206d757374206861766520636f72726573706f6e64696e6720604482015265706f6c69637960d01b6064820152608490fd5b3461016c57602036600319011261016c576104db6110fc60066110f56110d36110cd600435612799565b506128de565b60018060a01b0381511660005260cd60205260206040600020910151906126e5565b50016129a9565b604051918291602083526020830190611e40565b3461016c57602036600319011261016c57611129611dcc565b61113161212e565b61113961261d565b60ca80546001600160a01b0319166001600160a01b03929092169190911790556001609755005b3461016c57600036600319011261016c5760ca546040516001600160a01b039091168152602090f35b3461016c57600036600319011261016c576020604051600080516020612c4f8339815191528152f35b3461016c57600036600319011261016c5760cf546040516001600160a01b039091168152602090f35b3461016c57600036600319011261016c5760c9546040516001600160a01b039091168152602090f35b3461016c57602036600319011261016c576104db6110fc60056110f56110d36110cd600435612799565b3461016c57604036600319011261016c576104db6104c761124d611dcc565b60243590612af8565b3461016c57604036600319011261016c5761126f611de2565b336001600160a01b0382160361128b57610274906004356123ea565b60405162461bcd60e51b815260206004820152602f60248201527f416363657373436f6e74726f6c3a2063616e206f6e6c792072656e6f756e636560448201526e103937b632b9903337b91039b2b63360891b6064820152608490fd5b3461016c57604036600319011261016c57600435611304611de2565b81600052606560205261131e600160406000200154612252565b81600052606560205260406000209060018060a01b0316908160005260205260ff604060002054161561134d57005b8160005260656020526040600020816000526020526040600020600160ff198254161790553391600080516020612c2f833981519152600080a4005b3461016c5761139736611d99565b6113a2929192611f25565b6113aa61261d565b6113b760cb548314612b8f565b6113c36110cd83612799565b9060018060a01b03938483511660005260209060cd82526113ec604060002083860151906126e5565b509260028401916001600160401b038211610961578190611417826114118654612701565b86612752565b600090601f83116001146115a357600092611598575b50508160011b916000199060031b1c19161790555b60038201600260ff1982541617905560cb54600181018091116115825760cb5560c95483516004938401805460405163a9059cbb60e01b81529289166001600160a01b031695830195909552602482019490945290829082908816816000816044810103925af1908115610b785760009161154d575b501561150957505490516040805192835293166001600160a01b03166020820152918201527f0db5dca4dd414f50b27b36cd3fe4a713a2b72c882d12764afc08d327f24be8e7908060608101610941565b6064906040519062461bcd60e51b82526004820152601f60248201527f4661696c656420746f20726566756e6420746f6b656e7320746f2075736572006044820152fd5b90508181813d831161157b575b61156481836123c9565b8101031261016c5761157590612673565b866114b8565b503d61155a565b634e487b7160e01b600052601160045260246000fd5b01359050888061142d565b909150601f1983169184600052856000209260005b878282106115f75750509084600195949392106115dd575b505050811b019055611442565b0135600019600384901b60f8161c191690558880806115d0565b60018496829395870135815501950192016115b8565b3461016c5760208060031936011261016c576001600160a01b0361162f611dcc565b1660005260cd815260406000209081549161164983612680565b9261165760405194856123c9565b8084528284018092600052836000206000915b8383106116d15750505050604051918083019381845251809452604083019360408160051b85010192916000955b8287106116a55785850386f35b9091929382806116c1600193603f198a82030186528851611e74565b9601920196019592919092611698565b6007866001926116e3859a999a6129f8565b81520192019201919095949561166a565b3461016c5761170236611d99565b9161170b611f25565b61171361261d565b61172060cb548214612b8f565b61172c6110cd82612799565b9160018060a01b0383511660005260cd60205261175260406000206020850151906126e5565b509360028501916001600160401b038211610961578190611777826114118654612701565b600090601f8311600114611c4357600092611c38575b50508160011b916000199060031b1c19161790555b60038301600360ff1982541617905560009260005b6005820154811015611aad5760ca546001600160a01b0316906117dd8160058501612bd4565b905460405163696412bd60e11b815260039290921b1c6004820152600081602481865afa8015610b785761182e91600091611a92575b506118218360068701612bd4565b90549060031b1c90612850565b516040519063d3e8948360e01b825260048201526080928382602481845afa918215610b7857600092611a6f575b50600061186c8460058801612bd4565b90549060031b1c602460405180948193639b51fb0d60e01b835260048301525afa938415610b78576000946119ed575b505060ce549061271091820390828211611582578181029181830414901517156115825760c95460405163a9059cbb60e01b81526001600160a01b0386811660048301529390920460248301819052989260209183916044918391600091165af1908115610b78576000916119b3575b501561196e5761196992611941887f55703a43e3a9fde77a83dbeae6ceb4606e2958b557b0a9414068abbe71ad8c8593612460565b60408051998a526001600160a01b039290921660208a015290880186905296606090a16127b8565b6117b7565b60405162461bcd60e51b815260206004820152601b60248201527f4661696c656420746f206469737472696275746520746f6b656e7300000000006044820152606490fd5b90506020813d6020116119e5575b816119ce602093836123c9565b8101031261016c576119df90612673565b8861190c565b3d91506119c1565b909193503d90816000843e611a0282846123c9565b82828101031261016c5781516001600160401b03811161016c57611a2b90828401908401612bec565b5060208201516001600160401b03811161016c57611a4d918301908301612bec565b50611a666060611a5f60408401612864565b9201612673565b5091878061189c565b611a87919250843d86116110255761101181836123c9565b50509050908861185c565b611aa791503d806000833e61104181836123c9565b88611813565b506004015483818111611bf35760c95460cf546001600160a01b039182169391169181039081116115825760405163a9059cbb60e01b81526001600160a01b03929092166004830152602482015290602090829060449082906000905af1908115610b7857600091611bb9575b5015611b7b5760cb5491600183018093116115825760cb929092559051604080516001600160a01b03909216825260208201929092527f6c0a22920ff17df2882be32b96efe6c6f2a8ee9afd31289451970b5ab188d5c19181908101610941565b60405162461bcd60e51b81526020600482015260166024820152754661696c656420746f207472616e736665722066656560501b6044820152606490fd5b90506020813d602011611beb575b81611bd4602093836123c9565b8101031261016c57611be590612673565b83611b1a565b3d9150611bc7565b60405162461bcd60e51b815260206004820152601a60248201527f496e636f727265637420616d6f756e74732073656e74206f75740000000000006044820152606490fd5b01359050868061178d565b909150601f198316918460005260206000209260005b818110611c965750908460019594939210611c7c575b505050811b0190556117a2565b0135600019600384901b60f8161c19169055868080611c6f565b91936020600181928787013581550195019201611c59565b3461016c57600036600319011261016c57602060cb54604051908152f35b3461016c57600036600319011261016c57602060ce54604051908152f35b3461016c57602036600319011261016c5760043560005260656020526020600160406000200154604051908152f35b3461016c57602036600319011261016c576004359063ffffffff60e01b821680920361016c57602091637965db0b60e01b8114908115611d5b575b5015158152f35b6301ffc9a760e01b14905083611d54565b9181601f8401121561016c578235916001600160401b03831161016c576020838186019501011161016c57565b90604060031983011261016c5760043591602435906001600160401b03821161016c57611dc891600401611d6c565b9091565b600435906001600160a01b038216820361016c57565b602435906001600160a01b038216820361016c57565b60005b838110611e0b5750506000910152565b8181015183820152602001611dfb565b90602091611e3481518092818552858086019101611df8565b601f01601f1916010190565b90815180825260208080930193019160005b828110611e60575050505090565b835185529381019392810192600101611e52565b80518252611ea6611e94602083015160e0602086015260e0850190611e1b565b60408301518482036040860152611e1b565b9160608201519260048410156109dc57611ee160c091611ef29560608501526080850151608085015260a085015184820360a0860152611e40565b9201519060c0818403910152611e40565b90565b9181601f8401121561016c578235916001600160401b03831161016c576020808501948460051b01011161016c57565b3360009081527f6d51351eb7b22a09a8f336cea466b225fe287f25ae5dec64ddc74b92c45bf33760209081526040808320549092600080516020612c4f8339815191529160ff1615611f775750505050565b611f80336124af565b91845190611f8d826123ae565b6042825284820192606036853782511561211a576030845382519060019182101561211a5790607860218501536041915b8183116120ac5750505061206a57604861206693869361204a9361203b985198899376020b1b1b2b9b9a1b7b73a3937b61d1030b1b1b7bab73a1604d1b8a860152612012815180928c603789019101611df8565b8401917001034b99036b4b9b9b4b733903937b6329607d1b603784015251809386840190611df8565b010360288101875201856123c9565b5192839262461bcd60e51b845260048401526024830190611e1b565b0390fd5b60648486519062461bcd60e51b825280600483015260248201527f537472696e67733a20686578206c656e67746820696e73756666696369656e746044820152fd5b909192600f81166010811015612106576f181899199a1a9b1b9c1cb0b131b232b360811b901a6120dc8587612488565b5360041c9280156120f257600019019190611fbe565b634e487b7160e01b82526011600452602482fd5b634e487b7160e01b83526032600452602483fd5b634e487b7160e01b81526032600452602490fd5b3360009081527fffdfc1249c027f9191656349feb0761381bb32c9f557e01f419fd08754bf5a1b602090815260408083205490929060ff161561217057505050565b612179336124af565b9080845190612187826123ae565b6042825284820192606036853782511561211a576030845382519060019182101561211a5790607860218501536041915b81831161220c5750505061206a57604861206693869361204a9361203b985198899376020b1b1b2b9b9a1b7b73a3937b61d1030b1b1b7bab73a1604d1b8a860152612012815180928c603789019101611df8565b909192600f81166010811015612106576f181899199a1a9b1b9c1cb0b131b232b360811b901a61223c8587612488565b5360041c9280156120f2576000190191906121b8565b60009080825260209060658252604092838120338252835260ff84822054161561227c5750505050565b612285336124af565b91845190612292826123ae565b6042825284820192606036853782511561211a576030845382519060019182101561211a5790607860218501536041915b8183116123175750505061206a57604861206693869361204a9361203b985198899376020b1b1b2b9b9a1b7b73a3937b61d1030b1b1b7bab73a1604d1b8a860152612012815180928c603789019101611df8565b909192600f81166010811015612106576f181899199a1a9b1b9c1cb0b131b232b360811b901a6123478587612488565b5360041c9280156120f2576000190191906122c3565b60e081019081106001600160401b0382111761096157604052565b604081019081106001600160401b0382111761096157604052565b602081019081106001600160401b0382111761096157604052565b608081019081106001600160401b0382111761096157604052565b90601f801991011681019081106001600160401b0382111761096157604052565b906000918083526065602052604083209160018060a01b03169182845260205260ff60408420541661241b57505050565b8083526065602052604083208284526020526040832060ff1981541690557ff6391f5c32d9c69d2a47ea670b442974b53935d1edc7fd64eb21e047a839171b339380a4565b9190820180921161158257565b6001600160401b03811161096157601f01601f191660200190565b908151811015612499570160200190565b634e487b7160e01b600052603260045260246000fd5b60405190606082018281106001600160401b0382111761096157604052602a82526020820160403682378251156124995760309053815160019081101561249957607860218401536029905b80821161254f57505061250b5790565b606460405162461bcd60e51b815260206004820152602060248201527f537472696e67733a20686578206c656e67746820696e73756666696369656e746044820152fd5b9091600f811660108110156125a8576f181899199a1a9b1b9c1cb0b131b232b360811b901a61257e8486612488565b5360041c9180156125935760001901906124fb565b60246000634e487b7160e01b81526011600452fd5b60246000634e487b7160e01b81526032600452fd5b156125c457565b60405162461bcd60e51b815260206004820152602b60248201527f496e697469616c697a61626c653a20636f6e7472616374206973206e6f74206960448201526a6e697469616c697a696e6760a81b6064820152608490fd5b60026097541461262e576002609755565b60405162461bcd60e51b815260206004820152601f60248201527f5265656e7472616e637947756172643a207265656e7472616e742063616c6c006044820152606490fd5b5190811515820361016c57565b6001600160401b0381116109615760051b60200190565b92916126a282612680565b916126b060405193846123c9565b829481845260208094019160051b810192831161016c57905b8282106126d65750505050565b813581529083019083016126c9565b8054821015612499576000526007602060002091020190600090565b90600182811c92168015612731575b602083101461271b57565b634e487b7160e01b600052602260045260246000fd5b91607f1691612710565b818110612746575050565b6000815560010161273b565b9190601f811161276157505050565b61278d926000526020600020906020601f840160051c8301931061278f575b601f0160051c019061273b565b565b9091508190612780565b60cc548110156124995760cc60005260206000209060011b0190600090565b60001981146115825760010190565b91908110156124995760051b0190565b602090818184031261016c578051906001600160401b03821161016c57019180601f8401121561016c57825161280c81612680565b9361281a60405195866123c9565b818552838086019260051b82010192831161016c578301905b828210612841575050505090565b81518152908301908301612833565b80518210156124995760209160051b010190565b51906001600160a01b038216820361016c57565b919082608091031261016c57815191602081015191611ef2606061289e60408501612864565b9301612673565b604051906128b28261235d565b606060c08360008152826020820152826040820152600083820152600060808201528260a08201520152565b906040516128eb81612378565b82546001600160a01b031681526001909201546020830152565b906040519182600082549261291984612701565b9081845260019485811690816000146129865750600114612943575b505061278d925003836123c9565b9093915060005260209081600020936000915b81831061296e57505061278d93508201013880612935565b85548884018501529485019487945091830191612956565b91505061278d94506020925060ff191682840152151560051b8201013880612935565b9060405191828154918282526020928383019160005283600020936000905b8282106129de5750505061278d925003836123c9565b8554845260019586019588955093810193909101906129c8565b90604051612a058161235d565b809280548252612a1760018201612905565b6020830152612a2860028201612905565b604083015260ff6003820154169060048210156109dc576006612a6e9160c093606086015260048101546080860152612a63600582016129a9565b60a0860152016129a9565b910152565b612a7b6128a5565b5060cc54811015612a9e57612a986110d36110cd611ef293612799565b506129f8565b50604051612aab8161235d565b60008152604051612abb81612393565b600081526020820152604051612ad081612393565b6000815260408201526000606082015260006080820152606060a0820152606060c082015290565b612b006128a5565b506001600160a01b0316600081815260cd60205260408082205490939290831015612b3c579281611ef294612a9894935260cd602052206126e5565b509050815191612b4b8361235d565b8183528051612b5981612393565b8281526020840152805190612b6d82612393565b8282528301528060608301526080820152606060a0820152606060c082015290565b15612b9657565b60405162461bcd60e51b81526020600482015260166024820152750aadccaf0e0cac6e8cac840e2eacae4f240d2dcc8caf60531b6044820152606490fd5b80548210156124995760005260206000200190600090565b81601f8201121561016c578051612c028161246d565b92612c1060405194856123c9565b8184526020828401011161016c57611ef29160208085019101611df856fe2f8788117e7eff1d82e926ec794901d17c78024a50270940304540a733656f0dfc9efeb1a4bb8e4320137debe56dee502334d29d03c022fe29495c8d7825ec5fa2646970667358221220e1cbc9cf16d82cebffe1ca5dc2c41877ca6a9ddbfeeacf807b685a78e9dac94764736f6c63430008130033",
  "linkReferences": {},
  "deployedLinkReferences": {}
}