{
  "_format": "hh-sol-artifact-1",
  "contractName": "UserRole",
  "sourceName": "contracts/UserRole.sol",
  "abi": [
    {
      "inputs": [],
      "stateMutability": "nonpayable",
      "type": "constructor"
    },
    {
      "anonymous": false,
      "inputs": [
        {
          "indexed": false,
          "internalType": "uint8",
          "name": "version",
          "type": "uint8"
        }
      ],
      "name": "Initialized",
      "type": "event"
    },
    {
      "anonymous": false,
      "inputs": [
        {
          "indexed": true,
          "internalType": "bytes32",
          "name": "role",
          "type": "bytes32"
        },
        {
          "indexed": true,
          "internalType": "bytes32",
          "name": "previousAdminRole",
          "type": "bytes32"
        },
        {
          "indexed": true,
          "internalType": "bytes32",
          "name": "newAdminRole",
          "type": "bytes32"
        }
      ],
      "name": "RoleAdminChanged",
      "type": "event"
    },
    {
      "anonymous": false,
      "inputs": [
        {
          "indexed": true,
          "internalType": "bytes32",
          "name": "role",
          "type": "bytes32"
        },
        {
          "indexed": true,
          "internalType": "address",
          "name": "account",
          "type": "address"
        },
        {
          "indexed": true,
          "internalType": "address",
          "name": "sender",
          "type": "address"
        }
      ],
      "name": "RoleGranted",
      "type": "event"
    },
    {
      "anonymous": false,
      "inputs": [
        {
          "indexed": true,
          "internalType": "bytes32",
          "name": "role",
          "type": "bytes32"
        },
        {
          "indexed": true,
          "internalType": "address",
          "name": "account",
          "type": "address"
        },
        {
          "indexed": true,
          "internalType": "address",
          "name": "sender",
          "type": "address"
        }
      ],
      "name": "RoleRevoked",
      "type": "event"
    },
    {
      "anonymous": false,
      "inputs": [
        {
          "indexed": true,
          "internalType": "address",
          "name": "user",
          "type": "address"
        }
      ],
      "name": "StatusReset",
      "type": "event"
    },
    {
      "inputs": [],
      "name": "DA",
      "outputs": [
        {
          "internalType": "bytes32",
          "name": "",
          "type": "bytes32"
        }
      ],
      "stateMutability": "view",
      "type": "function"
    },
    {
      "inputs": [],
      "name": "DEFAULT_ADMIN_ROLE",
      "outputs": [
        {
          "internalType": "bytes32",
          "name": "",
          "type": "bytes32"
        }
      ],
      "stateMutability": "view",
      "type": "function"
    },
    {
      "inputs": [],
      "name": "DO",
      "outputs": [
        {
          "internalType": "bytes32",
          "name": "",
          "type": "bytes32"
        }
      ],
      "stateMutability": "view",
      "type": "function"
    },
    {
      "inputs": [],
      "name": "NO_ROLE",
      "outputs": [
        {
          "internalType": "bytes32",
          "name": "",
          "type": "bytes32"
        }
      ],
      "stateMutability": "view",
      "type": "function"
    },
    {
      "inputs": [],
      "name": "PPC_ROLE",
      "outputs": [
        {
          "internalType": "bytes32",
          "name": "",
          "type": "bytes32"
        }
      ],
      "stateMutability": "view",
      "type": "function"
    },
    {
      "inputs": [
        {
          "internalType": "address",
          "name": "user",
          "type": "address"
        }
      ],
      "name": "approveUserRole",
      "outputs": [],
      "stateMutability": "nonpayable",
      "type": "function"
    },
    {
      "inputs": [
        {
          "internalType": "address",
          "name": "userAddress",
          "type": "address"
        },
        {
          "internalType": "bytes32",
          "name": "userRole",
          "type": "bytes32"
        }
      ],
      "name": "assignUserRole",
      "outputs": [
        {
          "internalType": "string",
          "name": "",
          "type": "string"
        }
      ],
      "stateMutability": "nonpayable",
      "type": "function"
    },
    {
      "inputs": [
        {
          "internalType": "address",
          "name": "userAddress",
          "type": "address"
        }
      ],
      "name": "checkUserRoleExist",
      "outputs": [
        {
          "internalType": "bool",
          "name": "",
          "type": "bool"
        }
      ],
      "stateMutability": "view",
      "type": "function"
    },
    {
      "inputs": [
        {
          "internalType": "address",
          "name": "user",
          "type": "address"
        }
      ],
      "name": "getExpirationPeriod",
      "outputs": [
        {
          "internalType": "uint256",
          "name": "",
          "type": "uint256"
        }
      ],
      "stateMutability": "view",
      "type": "function"
    },
    {
      "inputs": [
        {
          "internalType": "bytes32",
          "name": "role",
          "type": "bytes32"
        }
      ],
      "name": "getRoleAdmin",
      "outputs": [
        {
          "internalType": "bytes32",
          "name": "",
          "type": "bytes32"
        }
      ],
      "stateMutability": "view",
      "type": "function"
    },
    {
      "inputs": [
        {
          "internalType": "address",
          "name": "user",
          "type": "address"
        }
      ],
      "name": "getStatus",
      "outputs": [
        {
          "internalType": "string",
          "name": "",
          "type": "string"
        }
      ],
      "stateMutability": "view",
      "type": "function"
    },
    {
      "inputs": [
        {
          "internalType": "address",
          "name": "userAddress",
          "type": "address"
        }
      ],
      "name": "getUserRole",
      "outputs": [
        {
          "internalType": "string",
          "name": "",
          "type": "string"
        }
      ],
      "stateMutability": "view",
      "type": "function"
    },
    {
      "inputs": [
        {
          "internalType": "bytes32",
          "name": "role",
          "type": "bytes32"
        },
        {
          "internalType": "address",
          "name": "account",
          "type": "address"
        }
      ],
      "name": "grantRole",
      "outputs": [],
      "stateMutability": "nonpayable",
      "type": "function"
    },
    {
      "inputs": [
        {
          "internalType": "bytes32",
          "name": "role",
          "type": "bytes32"
        },
        {
          "internalType": "address",
          "name": "account",
          "type": "address"
        }
      ],
      "name": "hasRole",
      "outputs": [
        {
          "internalType": "bool",
          "name": "",
          "type": "bool"
        }
      ],
      "stateMutability": "view",
      "type": "function"
    },
    {
      "inputs": [
        {
          "internalType": "address",
          "name": "newAdmin",
          "type": "address"
        }
      ],
      "name": "initialize",
      "outputs": [],
      "stateMutability": "nonpayable",
      "type": "function"
    },
    {
      "inputs": [],
      "name": "performUpkeep",
      "outputs": [],
      "stateMutability": "nonpayable",
      "type": "function"
    },
    {
      "inputs": [
        {
          "internalType": "address",
          "name": "user",
          "type": "address"
        }
      ],
      "name": "rejectUserRole",
      "outputs": [],
      "stateMutability": "nonpayable",
      "type": "function"
    },
    {
      "inputs": [
        {
          "internalType": "bytes32",
          "name": "role",
          "type": "bytes32"
        },
        {
          "internalType": "address",
          "name": "account",
          "type": "address"
        }
      ],
      "name": "renounceRole",
      "outputs": [],
      "stateMutability": "nonpayable",
      "type": "function"
    },
    {
      "inputs": [
        {
          "internalType": "address",
          "name": "user",
          "type": "address"
        }
      ],
      "name": "resetIfExpired",
      "outputs": [
        {
          "internalType": "bool",
          "name": "",
          "type": "bool"
        }
      ],
      "stateMutability": "nonpayable",
      "type": "function"
    },
    {
      "inputs": [
        {
          "internalType": "bytes32",
          "name": "role",
          "type": "bytes32"
        },
        {
          "internalType": "address",
          "name": "account",
          "type": "address"
        }
      ],
      "name": "revokeRole",
      "outputs": [],
      "stateMutability": "nonpayable",
      "type": "function"
    },
    {
      "inputs": [
        {
          "internalType": "address",
          "name": "user",
          "type": "address"
        },
        {
          "internalType": "string",
          "name": "updStatus",
          "type": "string"
        }
      ],
      "name": "setStatus",
      "outputs": [
        {
          "internalType": "bool",
          "name": "",
          "type": "bool"
        }
      ],
      "stateMutability": "nonpayable",
      "type": "function"
    },
    {
      "inputs": [
        {
          "internalType": "address",
          "name": "user",
          "type": "address"
        },
        {
          "internalType": "uint256",
          "name": "daysFromNow",
          "type": "uint256"
        }
      ],
      "name": "setUserExpirationPeriod",
      "outputs": [],
      "stateMutability": "nonpayable",
      "type": "function"
    },
    {
      "inputs": [
        {
          "internalType": "bytes4",
          "name": "interfaceId",
          "type": "bytes4"
        }
      ],
      "name": "supportsInterface",
      "outputs": [
        {
          "internalType": "bool",
          "name": "",
          "type": "bool"
        }
      ],
      "stateMutability": "view",
      "type": "function"
    },
    {
      "inputs": [
        {
          "internalType": "address",
          "name": "newAdmin",
          "type": "address"
        }
      ],
      "name": "transferAdminRole",
      "outputs": [],
      "stateMutability": "nonpayable",
      "type": "function"
    }
  ],
  "bytecode": "0x608080604052346100c1576000549060ff8260081c1661006f575060ff80821603610034575b604051611d7e90816100c78239f35b60ff90811916176000557f7f26b83ff96e1f2b6a682f133852f6798a09c465da95921460cefb3847402498602060405160ff8152a138610025565b62461bcd60e51b815260206004820152602760248201527f496e697469616c697a61626c653a20636f6e747261637420697320696e697469604482015266616c697a696e6760c81b6064820152608490fd5b600080fdfe608060408181526004918236101561001657600080fd5b600092833560e01c91826301ffc9a714610c7e575081630c39578114610c55578163248a9ca314610c2a5781632782085114610c03578163292f332214610bdd5781632f2ff15d14610bb857816330ccebb514610b7e57816336568abe14610aec578163445f97c014610a3e5781634b0d58d514610a15578163554158051461092e578163653f6ffd146108f25781636a522dae146108b75781636e4d243a1461079d57816391d1485414610756578163979fa635146106a6578163a217fddf1461068b578163ada8f919146105a1578163c4d66de8146103a2578163d0ddb82f146102e1578163d0fb9850146101c9578163d547741f1461018657508063f6832c4a1461015e5763f6d07d881461012d57600080fd5b3461015a57602036600319011261015a5760209061015161014c610cd1565b6118ce565b90519015158152f35b5080fd5b503461015a578160031936011261015a5760209051600080516020611d298339815191528152f35b919050346101c557806003193601126101c5576101c291356101bd60016101ab610cec565b93838752606560205286200154610d4a565b6111af565b80f35b8280fd5b8391503461015a578260031936011261015a576101e4610cd1565b9160243591600080516020611ce9833981519152831480156102ca575b15610298576001600160a01b038416825260976020528482208390556102948561024c868661024760018589610237858761150a565b8481526065602052200154610d4a565b611147565b8051906102588261108c565b601c82527f41737369676e206e6577207573657220726f6c65207375636365737300000000602083015251918291602083526020830190610d25565b0390f35b606490602086519162461bcd60e51b8352820152600c60248201526b496e76616c696420726f6c6560a01b6044820152fd5b50600080516020611d298339815191528314610201565b9050346101c557816003193601126101c5576102fb610cd1565b9060243567ffffffffffffffff9182821161039e573660238301121561039e5781013591821161039a57366024838301011161039a5793600080516020611d098339815191526103646103939493602460209861035e610359611461565b611362565b01611b37565b6001600160a01b0384168084526098885286842090939161038491611433565b80a261038e61189a565b611c45565b5160018152f35b8480fd5b8580fd5b9050346101c5576020908160031936011261059d576103bf610cd1565b84549060ff8260081c161592838094610590575b8015610579575b1561051f5760ff198381166001178855928461050e575b5060ff875460081c16156104b757506104129061040d336110ca565b6110ca565b600080516020611cc98339815191529081865260658452848620338752845260ff85872054161561047f575b5050610448578280f35b7f7f26b83ff96e1f2b6a682f133852f6798a09c465da95921460cefb38474024989161ff001984541684555160018152a138808280f35b81865260658452848620338752845260018587209182541617905533903390600080516020611ca98339815191528780a4388061043e565b855162461bcd60e51b8152908101859052602b60248201527f496e697469616c697a61626c653a20636f6e7472616374206973206e6f74206960448201526a6e697469616c697a696e6760a81b6064820152608490fd5b61ffff1916610101178755386103f1565b855162461bcd60e51b8152908101859052602e60248201527f496e697469616c697a61626c653a20636f6e747261637420697320616c72656160448201526d191e481a5b9a5d1a585b1a5e995960921b6064820152608490fd5b50303b1580156103da5750600160ff8416146103da565b50600160ff8416106103d3565b8380fd5b9050346101c5576020908160031936011261059d576105be610cd1565b9084805260658352838520338652835260ff84862054161561064857506105e4906110ca565b82805260658152818320338452815260ff8284205416610602578280f35b828052606581528183209033845252812060ff1981541690553333827ff6391f5c32d9c69d2a47ea670b442974b53935d1edc7fd64eb21e047a839171b8180a438808280f35b835162461bcd60e51b8152908101839052601c60248201527f4f6e6c792061646d696e2063616e207472616e7366657220726f6c65000000006044820152606490fd5b50503461015a578160031936011261015a5751908152602090f35b919050346101c557806003193601126101c5576106c1610cd1565b90602435916106d1610359611461565b6001600160a01b03168085526098602052818520600201549093909262015180808202918015908304909114171561074357830392831161073057508284526098602052832060020155600080516020611d098339815191528280a280f35b634e487b7160e01b855260119052602484fd5b634e487b7160e01b865260118252602486fd5b9050346101c557816003193601126101c5578160209360ff92610777610cec565b90358252606586528282206001600160a01b039091168252855220549151911615158152f35b919050346101c557826003193601126101c5576107bb610359611461565b6099918254156108815750825b825481101561087d57806107de61080f926114ef565b905460039190911b1c6001600160a01b03166000818152609860205260409020600201544211610814575b506114ca565b6107c8565b80610877918752602060988152858820600560ff1982541617815560014291015581600080516020611d098339815191528980a272155cd95c88095cc81a185cc8195e1c1a5c9959606a1b86519161086b8361108c565b60138352820152611c45565b38610809565b8380f35b6020606492519162461bcd60e51b835282015260116024820152704e6f20757365727320746f20636865636b60781b6044820152fd5b50503461015a578160031936011261015a57602090517fd022807ea312421efb536c4eee26b377aa093289ff3a0cedfa83ecef6b836ab18152f35b50503461015a57602036600319011261015a5760209160029082906001600160a01b0361091d610cd1565b168152609885522001549051908152f35b83833461015a57602036600319011261015a57610949610cd1565b610954610359611461565b610965610960826112ed565b6113ae565b6001600160a01b031680835260986020528183205460ff166007811015610a0257600261099291146113f1565b808352609860205260028284200154908251926109ae8461105a565b600384526020840191428352818501938452855260986020528420925160078110156109ef57906109e26002939285611433565b5160018401555191015580f35b634e487b7160e01b855260218652602485fd5b634e487b7160e01b845260218552602484fd5b50503461015a578160031936011261015a5760209051600080516020611cc98339815191528152f35b83833461015a57602036600319011261015a57610a59610cd1565b610a64610359611461565b610a70610960826112ed565b6001600160a01b031680835260986020528183205460ff166007811015610a02576002610a9d91146113f1565b80835260986020526002828420015490825192610ab98461105a565b8584526020840191428352818501938452855260986020528420925160078110156109ef57906109e26002939285611433565b8391503461015a578260031936011261015a57610b07610cec565b90336001600160a01b03831603610b2357906101c291356111af565b608490602085519162461bcd60e51b8352820152602f60248201527f416363657373436f6e74726f6c3a2063616e206f6e6c792072656e6f756e636560448201526e103937b632b9903337b91039b2b63360891b6064820152fd5b50503461015a57602036600319011261015a5761029490610ba5610ba0610cd1565b611a42565b9051918291602083526020830190610d25565b919050346101c557806003193601126101c5576101c2913561024760016101ab610cec565b50503461015a57602036600319011261015a57602090610151610bfe610cd1565b6112ed565b50503461015a57602036600319011261015a5761029490610ba5610c25610cd1565b61124c565b9050346101c55760203660031901126101c55781602093600192358152606585522001549051908152f35b50503461015a578160031936011261015a5760209051600080516020611ce98339815191528152f35b8491346101c55760203660031901126101c5573563ffffffff60e01b81168091036101c55760209250637965db0b60e01b8114908115610cc0575b5015158152f35b6301ffc9a760e01b14905083610cb9565b600435906001600160a01b0382168203610ce757565b600080fd5b602435906001600160a01b0382168203610ce757565b60005b838110610d155750506000910152565b8181015183820152602001610d05565b90602091610d3e81518092818552858086019101610d02565b601f01601f1916010190565b60009080825260209060658252604092838120338252835260ff848220541615610d745750505050565b33845192610d818461105a565b602a845284840190863683378451156110465760308253845192600193841015611032576078602187015360295b848111610fc85750610f86578651926080840184811067ffffffffffffffff821117610f7257885260428452868401946060368737845115610f5e57603086538451821015610f5e5790607860218601536041915b818311610ef057505050610eae57610eaa938693610e8e93610e7f604894610e569a519a8b9576020b1b1b2b9b9a1b7b73a3937b61d1030b1b1b7bab73a1604d1b8c8801525180926037880190610d02565b8401917001034b99036b4b9b9b4b733903937b6329607d1b603784015251809386840190610d02565b010360288101875201856110a8565b5192839262461bcd60e51b845260048401526024830190610d25565b0390fd5b60648587519062461bcd60e51b825280600483015260248201527f537472696e67733a20686578206c656e67746820696e73756666696369656e746044820152fd5b909192600f81166010811015610f4a576f181899199a1a9b1b9c1cb0b131b232b360811b901a610f208588611225565b5360041c928015610f3657600019019190610e04565b634e487b7160e01b82526011600452602482fd5b634e487b7160e01b83526032600452602483fd5b634e487b7160e01b81526032600452602490fd5b634e487b7160e01b86526041600452602486fd5b60648688519062461bcd60e51b825280600483015260248201527f537472696e67733a20686578206c656e67746820696e73756666696369656e746044820152fd5b90600f8116601081101561101e576f181899199a1a9b1b9c1cb0b131b232b360811b901a610ff68389611225565b5360041c90801561100a5760001901610daf565b634e487b7160e01b86526011600452602486fd5b634e487b7160e01b87526032600452602487fd5b634e487b7160e01b85526032600452602485fd5b634e487b7160e01b84526032600452602484fd5b6060810190811067ffffffffffffffff82111761107657604052565b634e487b7160e01b600052604160045260246000fd5b6040810190811067ffffffffffffffff82111761107657604052565b90601f8019910116810190811067ffffffffffffffff82111761107657604052565b6001600160a01b031660008181527fffdfc1249c027f9191656349feb0761381bb32c9f557e01f419fd08754bf5a1b602052604081205490919060ff1615611110575050565b81805260656020526040822081835260205260408220600160ff198254161790553391600080516020611ca98339815191528180a4565b906000918083526065602052604083209160018060a01b03169182845260205260ff6040842054161561117957505050565b80835260656020526040832082845260205260408320600160ff19825416179055600080516020611ca9833981519152339380a4565b906000918083526065602052604083209160018060a01b03169182845260205260ff6040842054166111e057505050565b8083526065602052604083208284526020526040832060ff1981541690557ff6391f5c32d9c69d2a47ea670b442974b53935d1edc7fd64eb21e047a839171b339380a4565b908151811015611236570160200190565b634e487b7160e01b600052603260045260246000fd5b6001600160a01b0316600090815260976020526040902054600080516020611ce983398151915281146112ce57600080516020611d29833981519152146112b0576040516112998161108c565b60078152664e4f5f524f4c4560c81b602082015290565b6040516112bc8161108c565b6002815261444f60f01b602082015290565b506040516112db8161108c565b6002815261444160f01b602082015290565b6001600160a01b0316600090815260976020526040902054600080516020611ce9833981519152811490811561134a575b508015611334575b61132f57600090565b600190565b5060986020526001604060002001541515611326565b600080516020611d298339815191529150143861131e565b1561136957565b60405162461bcd60e51b815260206004820152601d60248201527f43616c6c6572206973206e6f7420616e2061646d696e206f72205050430000006044820152606490fd5b156113b557565b60405162461bcd60e51b815260206004820152601460248201527355736572206973206e6f74206578697374696e6760601b6044820152606490fd5b156113f857565b60405162461bcd60e51b815260206004820152601360248201527255736572206973206e6f742070656e64696e6760681b6044820152606490fd5b90600781101561144b5760ff80198354169116179055565b634e487b7160e01b600052602160045260246000fd5b3360009081527fffdfc1249c027f9191656349feb0761381bb32c9f557e01f419fd08754bf5a1b602052604081205460ff1690811561149e575090565b60ff915080600080516020611cc983398151915260409252606560205281812033825260205220541690565b60001981146114d95760010190565b634e487b7160e01b600052601160045260246000fd5b60995481101561123657609960005260206000200190600090565b9190600080516020611ce983398151915214611874576001600160a01b038281166000818152609860208181526040808420600181810154959993979095929392909190156116f157505061155e816118ce565b6116a35784885282865260ff8289205416600781101561168f576003148015611670575b61161857505b8387528185528087209160ff83541695600285850154940154958351976115ae8961105a565b6007811015611604578852818801948552838801968752895252862093519560078710156115f057506115e5849596600295611433565b519084015551910155565b634e487b7160e01b81526021600452602490fd5b634e487b7160e01b8b52602160045260248bfd5b949350905061166e949550681d08195e1c1a5c995960ba1b91507f5573657220257320616c72656164792065786973747320616e64206973206e6f81519361165f8561105a565b60298552840152820152611c45565b565b5084885282865260ff8289205416600781101561168f57600214611582565b634e487b7160e01b89526021600452602489fd5b949350905061166e949550606760f81b91507f5573657220257320686173206265656e20726573657420746f2050656e64696e8151936116e28561105a565b60218552840152820152611c45565b60ff9192505416600781101561168f576005148015611855575b8015611838575b801561181a575b8015611807575b61172a5750611588565b87939194978490609954915b8281106117d8575b501561178f575b505086835281855283832090600260ff19835416178255429101556201518042019384421161177b576002949596835252200155565b634e487b7160e01b83526011600452602483fd5b600160401b8110156117c45780836117aa92016099556114ef565b819291549060031b918a831b921b19161790553880611745565b634e487b7160e01b85526041600452602485fd5b8a846117e3836114ef565b90549060031b1c16146117fe576117f9906114ca565b611736565b5050823861173e565b5084885282865283828920015415611720565b5084885282865260ff8289205416600781101561168f578414611719565b5084885282865260ff8289205416600781101561168f5715611712565b5084885282865260ff8289205416600781101561168f5760041461170b565b6001600160a01b039091166000908152609860205260409020805460ff19166003179055565b604051906118a78261108c565b6018825277155cd95c88095cc81a185cc81899595b881d5c19185d195960421b6020830152565b6001600160a01b03811660009081526098602052604090206002015442116118f65750600090565b9060018060a01b03821691600092808452609860205260408420600260ff1982541617815560014291015562015180420180421161195d5784600080516020611d09833981519152918361132f9697526098602052600260408320015580a261038e61189a565b634e487b7160e01b85526011600452602485fd5b6040519061197e8261108c565b600782526650656e64696e6760c81b6020830152565b604051906119a18261108c565b6008825267105c1c1c9bdd995960c21b6020830152565b604051906119c58261108c565b600882526714995a9958dd195960c21b6020830152565b604051906119e98261108c565b6005825264456d70747960d81b6020830152565b60405190611a0a8261108c565b6007825266115e1c1a5c995960ca1b6020830152565b60405190611a2d8261108c565b600682526511985a5b195960d21b6020830152565b6001600160a01b031660009081526098602052604090205460ff16600781101561144b5760028114611ae75760038114611ade5760048114611ad55760018114611acc5760058114611ac357600614611ab857604051611aa18161108c565b60078152662ab735b737bbb760c91b602082015290565b611ac0611a20565b90565b50611ac06119fd565b50611ac06119dc565b50611ac06119b8565b50611ac0611994565b50611ac0611971565b92919267ffffffffffffffff82116110765760405191611b1a601f8201601f1916602001846110a8565b829481845281830111610ce7578281602093846000960137010152565b90611b43368284611af0565b918251602080940120611b54611971565b84815191012014611c3d57611b6a368383611af0565b838151910120611b78611994565b84815191012014611c3557611b8e368383611af0565b838151910120611b9c6119b8565b84815191012014611c2d57611bb2368383611af0565b838151910120611bc06119dc565b84815191012014611c2557611bd6368383611af0565b838151910120611be46119fd565b84815191012014611c1d57611bfa913691611af0565b81815191012090611c09611a20565b805191012014611c1857600090565b600690565b505050600590565b505050600190565b505050600490565b505050600390565b505050600290565b600091908291611c956040518092611c76602083019563319af33360e01b8752604060248501526064840190610d25565b6001600160a01b0391909116604483015203601f1981018352826110a8565b51906a636f6e736f6c652e6c6f675afa5056fe2f8788117e7eff1d82e926ec794901d17c78024a50270940304540a733656f0dfc9efeb1a4bb8e4320137debe56dee502334d29d03c022fe29495c8d7825ec5facb68218675a6b8f94b96a4ce188a1d45e6ec45c7e40f7b357bd68d677840f3d3edf5858eae8b9eabef479f2d944a0b46eb543ade411684c55a59d7ebe07668639542911320ab763fd3196b504b00634798b8f1ad7ac84871a0d9cd1b0de8979a26469706673582212205ef61869a4a32efb9f0a57bcf0393766823b02f7333d85066c14efd034029a9d64736f6c63430008130033",
  "linkReferences": {},
  "deployedLinkReferences": {}
}