{
  "_format": "hh-sol-artifact-1",
  "contractName": "EoaBond",
  "sourceName": "contracts/EoaBond.sol",
  "abi": [
    {
      "inputs": [],
      "stateMutability": "nonpayable",
      "type": "constructor"
    },
    {
      "inputs": [
        {
          "internalType": "uint256",
          "name": "bucketId",
          "type": "uint256"
        }
      ],
      "name": "BucketNotFound",
      "type": "error"
    },
    {
      "inputs": [
        {
          "internalType": "uint256",
          "name": "bucketId",
          "type": "uint256"
        }
      ],
      "name": "NoPolicyIdsInBucket",
      "type": "error"
    },
    {
      "anonymous": false,
      "inputs": [
        {
          "indexed": false,
          "internalType": "uint256",
          "name": "policyId",
          "type": "uint256"
        },
        {
          "indexed": false,
          "internalType": "address",
          "name": "allowedAddress",
          "type": "address"
        }
      ],
      "name": "AddressAddedToPolicy",
      "type": "event"
    },
    {
      "anonymous": false,
      "inputs": [
        {
          "indexed": false,
          "internalType": "address",
          "name": "mainEoa",
          "type": "address"
        },
        {
          "indexed": false,
          "internalType": "address",
          "name": "apiEoa",
          "type": "address"
        }
      ],
      "name": "Bond",
      "type": "event"
    },
    {
      "anonymous": false,
      "inputs": [
        {
          "indexed": false,
          "internalType": "uint256",
          "name": "bucketId",
          "type": "uint256"
        },
        {
          "indexed": false,
          "internalType": "address",
          "name": "owner",
          "type": "address"
        }
      ],
      "name": "BucketAdded",
      "type": "event"
    },
    {
      "anonymous": false,
      "inputs": [
        {
          "indexed": false,
          "internalType": "uint256",
          "name": "bucketId",
          "type": "uint256"
        }
      ],
      "name": "BucketDeactivated",
      "type": "event"
    },
    {
      "anonymous": false,
      "inputs": [
        {
          "indexed": true,
          "internalType": "address",
          "name": "owner",
          "type": "address"
        },
        {
          "indexed": false,
          "internalType": "uint256[]",
          "name": "policyId",
          "type": "uint256[]"
        }
      ],
      "name": "Debug",
      "type": "event"
    },
    {
      "anonymous": false,
      "inputs": [
        {
          "indexed": false,
          "internalType": "address",
          "name": "mainEoa",
          "type": "address"
        }
      ],
      "name": "Detach",
      "type": "event"
    },
    {
      "anonymous": false,
      "inputs": [
        {
          "indexed": false,
          "internalType": "uint8",
          "name": "version",
          "type": "uint8"
        }
      ],
      "name": "Initialized",
      "type": "event"
    },
    {
      "anonymous": false,
      "inputs": [
        {
          "indexed": false,
          "internalType": "uint256",
          "name": "policyId",
          "type": "uint256"
        },
        {
          "indexed": false,
          "internalType": "address",
          "name": "owner",
          "type": "address"
        }
      ],
      "name": "PolicyAdded",
      "type": "event"
    },
    {
      "anonymous": false,
      "inputs": [
        {
          "indexed": false,
          "internalType": "uint256",
          "name": "bucketId",
          "type": "uint256"
        },
        {
          "indexed": false,
          "internalType": "uint256",
          "name": "policyId",
          "type": "uint256"
        }
      ],
      "name": "PolicyAddedToBucket",
      "type": "event"
    },
    {
      "anonymous": false,
      "inputs": [
        {
          "indexed": false,
          "internalType": "uint256",
          "name": "policyId",
          "type": "uint256"
        }
      ],
      "name": "PolicyDeactivated",
      "type": "event"
    },
    {
      "anonymous": false,
      "inputs": [
        {
          "indexed": true,
          "internalType": "bytes32",
          "name": "role",
          "type": "bytes32"
        },
        {
          "indexed": true,
          "internalType": "bytes32",
          "name": "previousAdminRole",
          "type": "bytes32"
        },
        {
          "indexed": true,
          "internalType": "bytes32",
          "name": "newAdminRole",
          "type": "bytes32"
        }
      ],
      "name": "RoleAdminChanged",
      "type": "event"
    },
    {
      "anonymous": false,
      "inputs": [
        {
          "indexed": true,
          "internalType": "bytes32",
          "name": "role",
          "type": "bytes32"
        },
        {
          "indexed": true,
          "internalType": "address",
          "name": "account",
          "type": "address"
        },
        {
          "indexed": true,
          "internalType": "address",
          "name": "sender",
          "type": "address"
        }
      ],
      "name": "RoleGranted",
      "type": "event"
    },
    {
      "anonymous": false,
      "inputs": [
        {
          "indexed": true,
          "internalType": "bytes32",
          "name": "role",
          "type": "bytes32"
        },
        {
          "indexed": true,
          "internalType": "address",
          "name": "account",
          "type": "address"
        },
        {
          "indexed": true,
          "internalType": "address",
          "name": "sender",
          "type": "address"
        }
      ],
      "name": "RoleRevoked",
      "type": "event"
    },
    {
      "inputs": [],
      "name": "DEFAULT_ADMIN_ROLE",
      "outputs": [
        {
          "internalType": "bytes32",
          "name": "",
          "type": "bytes32"
        }
      ],
      "stateMutability": "view",
      "type": "function"
    },
    {
      "inputs": [
        {
          "internalType": "uint256",
          "name": "policyId",
          "type": "uint256"
        },
        {
          "internalType": "address",
          "name": "allowedAddress",
          "type": "address"
        }
      ],
      "name": "addAllowedAddressToPolicy",
      "outputs": [],
      "stateMutability": "nonpayable",
      "type": "function"
    },
    {
      "inputs": [
        {
          "internalType": "uint256",
          "name": "bucketId",
          "type": "uint256"
        },
        {
          "internalType": "uint256[]",
          "name": "policyIds",
          "type": "uint256[]"
        },
        {
          "internalType": "bool[]",
          "name": "useAllowlists",
          "type": "bool[]"
        },
        {
          "internalType": "string",
          "name": "dataFormat",
          "type": "string"
        },
        {
          "internalType": "string",
          "name": "nodeAddress",
          "type": "string"
        }
      ],
      "name": "addBucket",
      "outputs": [],
      "stateMutability": "nonpayable",
      "type": "function"
    },
    {
      "inputs": [
        {
          "internalType": "uint256",
          "name": "policyId",
          "type": "uint256"
        },
        {
          "internalType": "string[]",
          "name": "allowedCategories",
          "type": "string[]"
        },
        {
          "internalType": "address[]",
          "name": "allowedAddresses",
          "type": "address[]"
        },
        {
          "internalType": "string[]",
          "name": "allowedColumns",
          "type": "string[]"
        },
        {
          "internalType": "uint256",
          "name": "expDate",
          "type": "uint256"
        },
        {
          "internalType": "uint256",
          "name": "price",
          "type": "uint256"
        }
      ],
      "name": "addPolicy",
      "outputs": [],
      "stateMutability": "nonpayable",
      "type": "function"
    },
    {
      "inputs": [
        {
          "internalType": "uint256",
          "name": "bucketId",
          "type": "uint256"
        },
        {
          "internalType": "uint256",
          "name": "policyId",
          "type": "uint256"
        }
      ],
      "name": "addPolicyToBucket",
      "outputs": [],
      "stateMutability": "nonpayable",
      "type": "function"
    },
    {
      "inputs": [
        {
          "internalType": "uint256",
          "name": "",
          "type": "uint256"
        }
      ],
      "name": "allBucketIds",
      "outputs": [
        {
          "internalType": "uint256",
          "name": "",
          "type": "uint256"
        }
      ],
      "stateMutability": "view",
      "type": "function"
    },
    {
      "inputs": [
        {
          "internalType": "address",
          "name": "",
          "type": "address"
        }
      ],
      "name": "apiEoas",
      "outputs": [
        {
          "internalType": "address",
          "name": "",
          "type": "address"
        }
      ],
      "stateMutability": "view",
      "type": "function"
    },
    {
      "inputs": [
        {
          "internalType": "address",
          "name": "apiEoa",
          "type": "address"
        }
      ],
      "name": "bond",
      "outputs": [],
      "stateMutability": "nonpayable",
      "type": "function"
    },
    {
      "inputs": [
        {
          "internalType": "uint256",
          "name": "",
          "type": "uint256"
        }
      ],
      "name": "buckets",
      "outputs": [
        {
          "internalType": "string",
          "name": "dataFormat",
          "type": "string"
        },
        {
          "internalType": "string",
          "name": "nodeAddress",
          "type": "string"
        },
        {
          "internalType": "address",
          "name": "owner",
          "type": "address"
        },
        {
          "internalType": "bool",
          "name": "deactivated",
          "type": "bool"
        }
      ],
      "stateMutability": "view",
      "type": "function"
    },
    {
      "inputs": [
        {
          "internalType": "address",
          "name": "",
          "type": "address"
        }
      ],
      "name": "dataProviders",
      "outputs": [
        {
          "internalType": "uint256",
          "name": "joinDate",
          "type": "uint256"
        },
        {
          "internalType": "string",
          "name": "category",
          "type": "string"
        }
      ],
      "stateMutability": "view",
      "type": "function"
    },
    {
      "inputs": [
        {
          "internalType": "address",
          "name": "",
          "type": "address"
        }
      ],
      "name": "dataSeekers",
      "outputs": [
        {
          "internalType": "uint256",
          "name": "joinDate",
          "type": "uint256"
        },
        {
          "internalType": "string",
          "name": "category",
          "type": "string"
        }
      ],
      "stateMutability": "view",
      "type": "function"
    },
    {
      "inputs": [
        {
          "internalType": "uint256",
          "name": "bucketId",
          "type": "uint256"
        }
      ],
      "name": "deactivateBucket",
      "outputs": [],
      "stateMutability": "nonpayable",
      "type": "function"
    },
    {
      "inputs": [
        {
          "internalType": "uint256",
          "name": "policyId",
          "type": "uint256"
        }
      ],
      "name": "deactivatePolicy",
      "outputs": [],
      "stateMutability": "nonpayable",
      "type": "function"
    },
    {
      "inputs": [],
      "name": "detach",
      "outputs": [],
      "stateMutability": "nonpayable",
      "type": "function"
    },
    {
      "inputs": [],
      "name": "getAllBucketIds",
      "outputs": [
        {
          "internalType": "uint256[]",
          "name": "",
          "type": "uint256[]"
        }
      ],
      "stateMutability": "view",
      "type": "function"
    },
    {
      "inputs": [],
      "name": "getAllBucketIdsByOwner",
      "outputs": [
        {
          "internalType": "uint256[]",
          "name": "",
          "type": "uint256[]"
        }
      ],
      "stateMutability": "view",
      "type": "function"
    },
    {
      "inputs": [
        {
          "internalType": "uint256",
          "name": "policyId",
          "type": "uint256"
        }
      ],
      "name": "getAllowedAddresses",
      "outputs": [
        {
          "internalType": "address[]",
          "name": "",
          "type": "address[]"
        }
      ],
      "stateMutability": "view",
      "type": "function"
    },
    {
      "inputs": [
        {
          "internalType": "uint256",
          "name": "policyId",
          "type": "uint256"
        }
      ],
      "name": "getAllowedCategories",
      "outputs": [
        {
          "internalType": "string[]",
          "name": "",
          "type": "string[]"
        }
      ],
      "stateMutability": "view",
      "type": "function"
    },
    {
      "inputs": [
        {
          "internalType": "uint256",
          "name": "policyId",
          "type": "uint256"
        }
      ],
      "name": "getAllowedColumns",
      "outputs": [
        {
          "internalType": "string[]",
          "name": "",
          "type": "string[]"
        }
      ],
      "stateMutability": "view",
      "type": "function"
    },
    {
      "inputs": [
        {
          "internalType": "address",
          "name": "userAddress",
          "type": "address"
        }
      ],
      "name": "getOwnerBucketIdsByAddress",
      "outputs": [
        {
          "internalType": "uint256[]",
          "name": "",
          "type": "uint256[]"
        }
      ],
      "stateMutability": "view",
      "type": "function"
    },
    {
      "inputs": [],
      "name": "getPolicyIdByOwner",
      "outputs": [
        {
          "internalType": "uint256[]",
          "name": "",
          "type": "uint256[]"
        }
      ],
      "stateMutability": "view",
      "type": "function"
    },
    {
      "inputs": [
        {
          "internalType": "uint256",
          "name": "bucketId",
          "type": "uint256"
        }
      ],
      "name": "getPolicyIds",
      "outputs": [
        {
          "internalType": "uint256[]",
          "name": "",
          "type": "uint256[]"
        }
      ],
      "stateMutability": "view",
      "type": "function"
    },
    {
      "inputs": [
        {
          "internalType": "bytes32",
          "name": "role",
          "type": "bytes32"
        }
      ],
      "name": "getRoleAdmin",
      "outputs": [
        {
          "internalType": "bytes32",
          "name": "",
          "type": "bytes32"
        }
      ],
      "stateMutability": "view",
      "type": "function"
    },
    {
      "inputs": [
        {
          "internalType": "uint256",
          "name": "bucketId",
          "type": "uint256"
        }
      ],
      "name": "getUseAllowlists",
      "outputs": [
        {
          "internalType": "bool[]",
          "name": "",
          "type": "bool[]"
        }
      ],
      "stateMutability": "view",
      "type": "function"
    },
    {
      "inputs": [
        {
          "internalType": "bytes32",
          "name": "role",
          "type": "bytes32"
        },
        {
          "internalType": "address",
          "name": "account",
          "type": "address"
        }
      ],
      "name": "grantRole",
      "outputs": [],
      "stateMutability": "nonpayable",
      "type": "function"
    },
    {
      "inputs": [
        {
          "internalType": "bytes32",
          "name": "role",
          "type": "bytes32"
        },
        {
          "internalType": "address",
          "name": "account",
          "type": "address"
        }
      ],
      "name": "hasRole",
      "outputs": [
        {
          "internalType": "bool",
          "name": "",
          "type": "bool"
        }
      ],
      "stateMutability": "view",
      "type": "function"
    },
    {
      "inputs": [],
      "name": "initialize",
      "outputs": [],
      "stateMutability": "nonpayable",
      "type": "function"
    },
    {
      "inputs": [
        {
          "internalType": "address",
          "name": "a",
          "type": "address"
        }
      ],
      "name": "mainAccount",
      "outputs": [
        {
          "internalType": "address",
          "name": "",
          "type": "address"
        }
      ],
      "stateMutability": "view",
      "type": "function"
    },
    {
      "inputs": [
        {
          "internalType": "address",
          "name": "",
          "type": "address"
        }
      ],
      "name": "mainEoas",
      "outputs": [
        {
          "internalType": "address",
          "name": "",
          "type": "address"
        }
      ],
      "stateMutability": "view",
      "type": "function"
    },
    {
      "inputs": [
        {
          "internalType": "address",
          "name": "",
          "type": "address"
        },
        {
          "internalType": "uint256",
          "name": "",
          "type": "uint256"
        }
      ],
      "name": "ownerBucketIds",
      "outputs": [
        {
          "internalType": "uint256",
          "name": "",
          "type": "uint256"
        }
      ],
      "stateMutability": "view",
      "type": "function"
    },
    {
      "inputs": [
        {
          "internalType": "address",
          "name": "",
          "type": "address"
        },
        {
          "internalType": "uint256",
          "name": "",
          "type": "uint256"
        }
      ],
      "name": "ownerPolicyIds",
      "outputs": [
        {
          "internalType": "uint256",
          "name": "",
          "type": "uint256"
        }
      ],
      "stateMutability": "view",
      "type": "function"
    },
    {
      "inputs": [
        {
          "internalType": "uint256",
          "name": "",
          "type": "uint256"
        }
      ],
      "name": "policies",
      "outputs": [
        {
          "internalType": "uint256",
          "name": "expDate",
          "type": "uint256"
        },
        {
          "internalType": "uint256",
          "name": "price",
          "type": "uint256"
        },
        {
          "internalType": "address",
          "name": "owner",
          "type": "address"
        },
        {
          "internalType": "bool",
          "name": "deactivated",
          "type": "bool"
        }
      ],
      "stateMutability": "view",
      "type": "function"
    },
    {
      "inputs": [
        {
          "internalType": "bytes32",
          "name": "role",
          "type": "bytes32"
        },
        {
          "internalType": "address",
          "name": "account",
          "type": "address"
        }
      ],
      "name": "renounceRole",
      "outputs": [],
      "stateMutability": "nonpayable",
      "type": "function"
    },
    {
      "inputs": [
        {
          "internalType": "bytes32",
          "name": "role",
          "type": "bytes32"
        },
        {
          "internalType": "address",
          "name": "account",
          "type": "address"
        }
      ],
      "name": "revokeRole",
      "outputs": [],
      "stateMutability": "nonpayable",
      "type": "function"
    },
    {
      "inputs": [
        {
          "internalType": "address",
          "name": "dpAddr",
          "type": "address"
        },
        {
          "internalType": "string",
          "name": "category",
          "type": "string"
        }
      ],
      "name": "setDataProvider",
      "outputs": [],
      "stateMutability": "nonpayable",
      "type": "function"
    },
    {
      "inputs": [
        {
          "internalType": "address",
          "name": "dsAddr",
          "type": "address"
        },
        {
          "internalType": "string",
          "name": "category",
          "type": "string"
        }
      ],
      "name": "setDataSeeker",
      "outputs": [],
      "stateMutability": "nonpayable",
      "type": "function"
    },
    {
      "inputs": [
        {
          "internalType": "bytes4",
          "name": "interfaceId",
          "type": "bytes4"
        }
      ],
      "name": "supportsInterface",
      "outputs": [
        {
          "internalType": "bool",
          "name": "",
          "type": "bool"
        }
      ],
      "stateMutability": "view",
      "type": "function"
    }
  ],
  "bytecode": "0x608080604052346100c2576000549060ff8260081c16610070575060ff80821603610035575b6040516132259081620000c88239f35b60ff90811916176000557f7f26b83ff96e1f2b6a682f133852f6798a09c465da95921460cefb3847402498602060405160ff8152a138610025565b62461bcd60e51b815260206004820152602760248201527f496e697469616c697a61626c653a20636f6e747261637420697320696e697469604482015266616c697a696e6760c81b6064820152608490fd5b600080fdfe608080604052600436101561001357600080fd5b60e0600035811c91826225606f146126555750816301ffc9a7146125ff5781630e3634571461256b5781630ecfc8d414612047578163118f124914611fea5781632124836914611f4e578163225435c014611ecd578163247ce85b14611d5a578163248a9ca314611d2b5781632f2ff15d14611c7857816336568abe14611be65781634e30528214611b7f5781634e4c399314611b405781635773d18014611b035781635efb538a14611a375781636f22aa70146119fc578163780aac03146119a2578163796d749b1461196d5781638129fc1c14611776578163854e7cb3146116fb5781638897f0451461161f5781638d8e8e3c146115d557816391d148541461158857816396c78fb4146114705781639b51fb0d146113e5578163a0f82994146112dc578163a217fddf146112c0578163afa245b414611268578163c783e46e14610bed57508063d2c8257a14610a2b578063d3e89483146109cf578063d547741f1461098e578063de37ce9e146108cb578063de92695a14610849578063ded7f4ae14610794578063eb4a4645146107155763fde37aee146101b757600080fd5b346105805760c0366003190112610580576024356001600160401b038111610580576101e79036906004016129a4565b6044356001600160401b038111610580576102069036906004016126f4565b906064356001600160401b038111610580576102269036906004016129a4565b91600435600052609b60205260406000209360018060a01b036005860154166106d757805190600160401b82116104cc578554828755808310610661575b50600086815260208082209392015b82821061058557505050506001600160401b0381116104cc57600160401b81116104cc5760018401916102ab82845481865585613061565b916000526020600020916000905b82821061055b578451869086600160401b82116104cc5760028301548260028501558083106104e2575b5060200190600283016000526020600020916000905b8282106103e957608435600386015560a435600486015560058501805460ff60a01b1981169091557f977367dcdd13b45f9ddcc1b0b549054231eee20e8e2795185f2448336a194146906103e49087906001600160a01b0361035a33612fda565b16809160018060a81b031916176005830155600052609e6020526103846004356040600020613084565b600560018060a01b03910154166103c2816040516103a1816127a3565b600f81526e027bbb732b91020b2323932b9b99d1608d1b602082015261314c565b6040805160043581526001600160a01b03909216602083015290918291820190565b0390a1005b80518051906001600160401b0382116104cc576104108261040a8854612769565b8861301c565b602090601f831160011461045c579282600194936020938695600092610451575b5050600019600383901b1c191690841b1787555b019401910190926102f9565b015190508a80610431565b908660005260206000209160005b601f19851681106104b4575083602093600196938796938794601f1981161061049b575b505050811b018755610445565b015160001960f88460031b161c191690558a808061048e565b9192602060018192868501518155019401920161046a565b634e487b7160e01b600052604160045260246000fd5b600284016000526020600020908382015b81830181106105035750506102e3565b8061051060019254612769565b8061051d575b50016104f3565b601f908181118414610536575050600081555b87610516565b61055260009284845260208420920160051c8201858301613005565b81835555610530565b8035916001600160a01b038316830361058057602060019201928186015501906102b9565b600080fd5b80518051906001600160401b0382116104cc576105a68261040a8854612769565b602090601f83116001146105f25792826001949360209386956000926105e7575b5050600019600383901b1c191690841b1787555b01940191019092610273565b0151905038806105c7565b908660005260206000209160005b601f198516811061064957509260209260019592869583601f19811610610630575b505050831b830187556105db565b015160001960f88460031b161c19169055388080610622565b91926020600181928685015181550194019201610600565b866000526020600020908382015b818301811061067f575050610264565b8061068c60019254612769565b80610699575b500161066f565b601f9081811184146106b2575050600081555b38610692565b6106ce60009284845260208420920160051c8201858301613005565b818355556106ac565b60405162461bcd60e51b8152602060048201526016602482015275141bdb1a58de48125108185b1c9958591e481d5cd95960521b6044820152606490fd5b34610580576020366003190112610580577fa040c05c2aea9ad7da426cefbf383fc472d4759806d4aa7d1257f00f0faadd01602060043580600052609b82526005604060002001805461077c60018060a01b038061077233612fda565b16908316146130c6565b60ff60a01b1916600160a01b179055604051908152a1005b346105805760208060031936011261058057600435600052609b8152600190816040600020019160405191828185549182815201908195600052826000209060005b81811061082d57505050836107ec9103846127d9565b60405192818401908285525180915260408401949160005b8281106108115785870386f35b83516001600160a01b0316875295810195928101928401610804565b82546001600160a01b03168452928401929185019185016107d6565b346105805760208060031936011261058057600435600052609b8152600260406000200180546108788161298d565b9161088660405193846127d9565b8183526000908152838120938084015b8383106108af57604051806108ab87826128e8565b0390f35b60018281926108bd896127fa565b815201960192019194610896565b34610580576000366003190112610580576108e533612fda565b6108f6816108f1612f3d565b61314c565b60018060a01b03811661092d60405161092581610917602096878301612f72565b03601f1981018352826127d9565b821515612fae565b600052609d8152604060002090604051908181845491828152019360005281600020916000905b828210610977576108ab8561096b818903826127d9565b604051918291826126b9565b835486529485019460019384019390910190610954565b34610580576040366003190112610580576109cd6004356109ad6126a3565b908060005260656020526109c8600160406000200154612c64565b612d6f565b005b3461058057602036600319011261058057600435600052609b6020526080604060002060ff6003820154916005600482015491015490604051938452602084015260018060a01b038116604084015260a01c1615156060820152f35b34610580576020806003193601126105805760043580600052609c82526040600020541580610bab5750600052609c8152604060002090604051808383829554938481520190600052836000209260005b85828210610b9557505050610a93925003836127d9565b6000805b8351811015610aea57610aaa8185612f29565b51600052609b835260ff60056040600020015460a01c1615610ad5575b610ad090612f04565b610a97565b90610ae2610ad091612f04565b919050610ac7565b5091610af58361298d565b92610b0360405194856127d9565b808452610b12601f199161298d565b01368385013760009060005b8151811015610b8757610b318183612f29565b51600052609b845260ff60056040600020015460a01c1615610b5c575b610b5790612f04565b610b1e565b91610b7f610b5791610b6e8585612f29565b51610b798289612f29565b52612f04565b929050610b4e565b604051806108ab87826126b9565b8554845260019586019588955093019201610a7c565b602492508080610be5575b50610bd057604051906377fb338960e01b82526004820152fd5b6040519063d22f9c3960e01b82526004820152fd5b905083610bb6565b346105805760208060031936011261058057600435600052609c815260019181836040600020019160405190819283918186549485815201908196600052826000209460005b8a82601f83011061109d5785610d56985494848410611088575b84841061106f575b848410611056575b84841061103d575b848410611026575b84841061100d575b848410610ff4575b848410610fdb575b848410610fc2575b848410610fa9575b848410610f90575b848410610f77575b848410610f5e575b848410610f45575b848410610f2c575b848410610f13575b848410610efa575b848410610ee1575b848410610ec8575b848410610eaf575b848410610e96575b848410610e7d575b848410610e64575b848410610e4b575b848410610e32575b848410610e19575b848410610e00575b848410610de7575b848410610dd0575b50838310610db8575b838310610da0575b505010610d90575b50905095939594929403846127d9565b60405192818401908285525180915260408401949160005b828110610d7b5785870386f35b83511515875295810195928101928401610d6e565b60f81c1515815201859088610d46565b90919460ff8560f01c16151581520193018a85610d3e565b90919460ff8560e81c16151581520193018a85610d36565b85901c60ff161515865290940193018a858d610d2d565b929581839160ff8860d81c161515815201960192610d25565b929581839160ff8860d01c161515815201960192610d1d565b929581839160ff8860c81c161515815201960192610d15565b929581839160ff8860c01c161515815201960192610d0d565b929581839160ff8860b81c161515815201960192610d05565b929581839160ff8860b01c161515815201960192610cfd565b929581839160ff8860a81c161515815201960192610cf5565b929581839160ff8860a01c161515815201960192610ced565b929581839160ff8860981c161515815201960192610ce5565b929581839160ff8860901c161515815201960192610cdd565b929581839160ff8860881c161515815201960192610cd5565b929581839160ff8860801c161515815201960192610ccd565b929581839160ff8860781c161515815201960192610cc5565b929581839160ff8860701c161515815201960192610cbd565b929581839160ff8860681c161515815201960192610cb5565b929581839160ff8860601c161515815201960192610cad565b929581839160ff8860581c161515815201960192610ca5565b929581839160ff8860501c161515815201960192610c9d565b929581839160ff8860481c161515815201960192610c95565b929581839160ff8860401c161515815201960192610c8d565b929581839160ff8860381c161515815201960192610c85565b929581839160ff8860301c161515815201960192610c7d565b929581839160ff8860281c161515815201960192610c75565b85821c60ff16151587529581019592820192610c6d565b929581839160ff8860181c161515815201960192610c65565b929581839160ff8860101c161515815201960192610c5d565b929581839160ff8860081c161515815201960192610c55565b60ff8616151587529581019592820192610c4d565b91949295509261040090875460ff80821615158352808260081c16151586840152808260101c161515604084015280828a82828782828d82826060828260181c1615158188015282826080951c1615158488015260a096838360281c1615158882015260c09a848460301c1615158c830152848460381c16151590820152838360401c161515610100820152838360481c161515610120820152838360501c161515610140820152610160848460581c1615159101521c1615156101808d0152828260681c1615156101a08d0152828260701c1615156101c08d0152828260781c1615156101e08d01521c1615156102008a0152828260881c1615156102208a0152828260901c1615156102408a0152828260981c1615156102608a01521c161515610280870152828260a81c1615156102a0870152828260b01c1615156102c0870152828260b81c1615156102e08701521c161515610300840152808260c81c161515610320840152808260d01c161515610340840152808260d81c16151561036084015280828a1c161515610380840152808260e81c1615156103a08401528160f01c1615156103c083015260f81c15156103e082015201950191019287928694959295610c33565b346105805760403660031901126105805761128161268d565b6001600160a01b03166000908152609e6020526040902080546024359190821015610580576020916112b291612751565b90546040519160031b1c8152f35b3461058057600036600319011261058057602060405160008152f35b34610580576112ea3661294a565b90916112f4612a7c565b60018060a01b0316600052602090609a82526040600020918254156113dd575b6001809301936001600160401b0383116104cc5761133c836113368754612769565b8761301c565b600091601f841160011461137a575092829391839260009461136f575b50501b916000199060031b1c1916179055600080f35b013592508580611359565b9183601f1981168760005284600020946000905b888383106113c357505050106113a9575b505050811b019055005b0135600019600384901b60f8161c1916905583808061139f565b86860135885590960195938401938793509081019061138e565b428355611314565b3461058057602036600319011261058057600435600052609c6020526114416040600020611415600282016127fa565b9060ff61144f6004611429600385016127fa565b930154926040519586956080875260808701906128c3565b9085820360208701526128c3565b6001600160a01b038316604085015260a09290921c16151560608301520390f35b346105805760403660031901126105805760043561148c6126a3565b6000828152609b6020526040902060058101546001600160a01b0393919060ff906114c4866114ba33612fda565b16878316146130c6565b60a01c1661154b5760010180549390600160401b8510156104cc57846115109160017f9c36476ec530d5b4024edee8143f1fc33550a1ad216d2e678245eb458edcd16c97018155612751565b815460039190911b83811b19909116928516901b919091179055604080519182526001600160a01b03909216602082015290819081016103e4565b60405162461bcd60e51b8152602060048201526015602482015274141bdb1a58de481a5cc819195858dd1a5d985d1959605a1b6044820152606490fd5b34610580576040366003190112610580576115a16126a3565b600435600052606560205260406000209060018060a01b0316600052602052602060ff604060002054166040519015158152f35b34610580576040366003190112610580576115ee61268d565b6001600160a01b03166000908152609d6020526040902080546024359190821015610580576020916112b291612751565b346105805761162d3661294a565b9091611637612a7c565b60018060a01b0316600052602090609982526040600020918254156116f3575b6001809301936001600160401b0383116104cc57611679836113368754612769565b600091601f84116001146116ab575092829391839260009461136f5750501b916000199060031b1c1916179055600080f35b9183601f1981168760005284600020946000905b888383106116d957505050106113a957505050811b019055005b8686013588559096019593840193879350908101906116bf565b428355611657565b346105805760208060031936011261058057600435600052609b8152604060002080546117278161298d565b9161173560405193846127d9565b8183526000908152838120938084015b83831061175a57604051806108ab87826128e8565b6001828192611768896127fa565b815201960192019194611745565b346105805760003660031901126105805760005460ff8160081c161590818092611960575b8015611949575b156118ed5760ff1981811660011760005590826118db575b5060ff60005460081c1615611882573360009081526000805160206131d0833981519152602052604090205460ff161561182e575b506117f657005b61ff0019600054166000557f7f26b83ff96e1f2b6a682f133852f6798a09c465da95921460cefb3847402498602060405160018152a1005b3360008181526000805160206131d08339815191526020526040812080549093166001179092559081907f2f8788117e7eff1d82e926ec794901d17c78024a50270940304540a733656f0d8180a4816117ef565b60405162461bcd60e51b815260206004820152602b60248201527f496e697469616c697a61626c653a20636f6e7472616374206973206e6f74206960448201526a6e697469616c697a696e6760a81b6064820152608490fd5b61ffff191661010117600055826117ba565b60405162461bcd60e51b815260206004820152602e60248201527f496e697469616c697a61626c653a20636f6e747261637420697320616c72656160448201526d191e481a5b9a5d1a585b1a5e995960921b6064820152608490fd5b50303b1580156117a25750600160ff8216146117a2565b50600160ff82161061179b565b3461058057602036600319011261058057602061199061198b61268d565b612fda565b6040516001600160a01b039091168152f35b34610580576020366003190112610580576001600160a01b036119c361268d565b16600052609960205260406000206119df6001825492016127fa565b906108ab60405192839283526040602084015260408301906128c3565b346105805760203660031901126105805760206001600160a01b0380611a2061268d565b166000526098825260406000205416604051908152f35b34610580576040366003190112610580576004356024359080600052609c60205260406000209060ff6004830154611a8360018060a01b0380611a7933612fda565b1690831614613109565b60a01c16611ac65782611ab97f97fd0f78540a5bcd5a6b6af3e260ab088b75e70678c3768ba048e94d701531b394604094613084565b82519182526020820152a1005b60405162461bcd60e51b8152602060048201526015602482015274109d58dad95d081a5cc819195858dd1a5d985d1959605a1b6044820152606490fd5b34610580576020366003190112610580576001600160a01b03611b2461268d565b16600052609a60205260406000206119df6001825492016127fa565b3461058057602036600319011261058057600435609f5481101561058057609f6000526000805160206131b08339815191520154604051908152602090f35b3461058057600036600319011261058057604051609f80548083526000918252602080840193926000805160206131b083398151915292915b828210611bcf576108ab8561096b818903826127d9565b835486529485019460019384019390910190611bb8565b3461058057604036600319011261058057611bff6126a3565b336001600160a01b03821603611c1b576109cd90600435612d6f565b60405162461bcd60e51b815260206004820152602f60248201527f416363657373436f6e74726f6c3a2063616e206f6e6c792072656e6f756e636560448201526e103937b632b9903337b91039b2b63360891b6064820152608490fd5b3461058057604036600319011261058057600435611c946126a3565b816000526065602052611cae600160406000200154612c64565b81600052606560205260406000209060018060a01b0316908160005260205260ff6040600020541615611cdd57005b8160005260656020526040600020816000526020526040600020600160ff1982541617905533917f2f8788117e7eff1d82e926ec794901d17c78024a50270940304540a733656f0d600080a4005b346105805760203660031901126105805760043560005260656020526020600160406000200154604051908152f35b346105805760208060031936011261058057611d7461268d565b3360009081526097835260409020546001600160a01b0391908216611e9257811690816000526098835260406000205416611e5857803314611e13577f926f98e4b543897a75b3e34b7494ba68a47829d3aa39ffd9c478ccc51bfbfb449160409133600052609782528260002060018060a01b0319908282825416179055816000526098835283600020903390825416179055825191338352820152a1005b60405162461bcd60e51b815260048101839052601f60248201527f4d61696e20616e64204150492063616e6e6f74206265207468652073616d65006044820152606490fd5b60405162461bcd60e51b815260048101839052601260248201527110541248185b1c9958591e48189bdb99195960721b6044820152606490fd5b60405162461bcd60e51b815260048101849052601360248201527213585a5b88185b1c9958591e48189bdb991959606a1b6044820152606490fd5b346105805760003660031901126105805733600081815260976020818152604080842080546001600160a01b031685526098835281852080546001600160a01b031990811690915594869052928252825490931690915590519182527fc4334c4bd536e76bf4341972a09af796d8fd3c7336b1a827427f6c0b52b6620291a1005b3461058057600036600319011261058057611f6833612fda565b611f74816108f1612f3d565b60018060a01b038116611f9560405161092581610917602096878301612f72565b600052609e8152604060002090604051908181845491828152019360005281600020916000905b828210611fd3576108ab8561096b818903826127d9565b835486529485019460019384019390910190611fbc565b34610580576020366003190112610580577f3002681acd76b745f42970dd6c00cd7a2f96c2de284fdfd06e0f8fb11296f650602060043580600052609c82526004604060002001805461077c60018060a01b0380611a7933612fda565b346105805760a0366003190112610580576024356001600160401b038111610580576120779036906004016126f4565b906044356001600160401b038111610580576120979036906004016126f4565b6064939193356001600160401b038111610580576120b9903690600401612724565b6084356001600160401b038111610580576120d8903690600401612724565b939096600435600052609c60205260406000209560018060a01b03978860048901541661252d576001600160401b0382116104cc57600160401b82116104cc57612127828954818b558a613061565b87600052602060002060005b83811061251957505050506001600160401b0382116104cc57600160401b82116104cc5760018601548260018801558083106124c0575b50906001860160005260206000209060005b8160051c811061248a5750601f1981168103612436575b5050506001600160401b0381116104cc578060028501926121be826121b88654612769565b8661301c565b600090601f83116001146123cb576000926123c0575b50508160011b916000199060031b1c19161790555b60038201906001600160401b0381116104cc576122108161220a8454612769565b8461301c565b6000601f821160011461235957819293949560009261234e575b50508160011b916000199060031b1c19161790555b8161224933612fda565b168060018060a01b031960048401541617600483015561229a8160405161226f816127a3565b6019815278027bbb732b91020b2323932b9b99030b232213ab1b5b2ba1d1603d1b602082015261314c565b600052609d6020526122b26004356040600020613084565b609f5491600160401b8310156104cc576001830180609f5583101561233857609f600052600480356000805160206131b08339815191529490940184905591909101546040805193845291166001600160a01b031660208301527fe737a3ee8520887c4018b97f640958f8a2ad13444ab4ff075956b54ca12516849190819081016103e4565b634e487b7160e01b600052603260045260246000fd5b01359050858061222a565b601f198216958360005260206000209160005b8881106123a85750836001959697981061238e575b505050811b01905561223f565b0135600019600384901b60f8161c19169055858080612381565b9092602060018192868601358155019401910161236c565b0135905087806121d4565b909150601f198316918460005260206000209260005b81811061241e5750908460019594939210612404575b505050811b0190556121e9565b0135600019600384901b60f8161c191690558780806123f7565b919360206001819287870135815501950192016123e1565b60009260005b601f1983168303811061245857505060051c0155868080612193565b909360206124816001928461246c896130b9565b919060ff809160031b9316831b921b19161790565b9501910161243c565b6000805b602081106124a357508382015560010161217c565b949060206124b76001928861246c866130b9565b9201950161248e565b6124f19060018801600052601f602060002091818616806124f7575b500160051c810190601f850160051c01613005565b8861216a565b600019908184890160051c8601019182549160200360031b1c1690558c6124dc565b600190602084359401938184015501612133565b60405162461bcd60e51b8152602060048201526016602482015275109d58dad95d08125108185b1c9958591e481d5cd95960521b6044820152606490fd5b34610580576020806003193601126105805761258561268d565b6040516001600160a01b038216916125aa919061092590829061091790878301612f72565b600052609d8152604060002090604051908181845491828152019360005281600020916000905b8282106125e8576108ab8561096b818903826127d9565b8354865294850194600193840193909101906125d1565b346105805760203660031901126105805760043563ffffffff60e01b811680910361058057602090637965db0b60e01b8114908115612644575b506040519015158152f35b6301ffc9a760e01b14905082612639565b34610580576020366003190112610580576020906001600160a01b038061267a61268d565b1660005260978352604060002054168152f35b600435906001600160a01b038216820361058057565b602435906001600160a01b038216820361058057565b6020908160408183019282815285518094520193019160005b8281106126e0575050505090565b8351855293810193928101926001016126d2565b9181601f84011215610580578235916001600160401b038311610580576020808501948460051b01011161058057565b9181601f84011215610580578235916001600160401b038311610580576020838186019501011161058057565b80548210156123385760005260206000200190600090565b90600182811c92168015612799575b602083101461278357565b634e487b7160e01b600052602260045260246000fd5b91607f1691612778565b604081019081106001600160401b038211176104cc57604052565b608081019081106001600160401b038211176104cc57604052565b90601f801991011681019081106001600160401b038211176104cc57604052565b906040519182600082549261280e84612769565b90818452600194858116908160001461287d575060011461283a575b5050612838925003836127d9565b565b9093915060005260209081600020936000915b8183106128655750506128389350820101388061282a565b8554888401850152948501948794509183019161284d565b91505061283894506020925060ff191682840152151560051b820101388061282a565b60005b8381106128b35750506000910152565b81810151838201526020016128a3565b906020916128dc815180928185528580860191016128a0565b601f01601f1916010190565b602080820190808352835180925260408301928160408460051b8301019501936000915b84831061291c5750505050505090565b909192939495848061293a600193603f198682030187528a516128c3565b980193019301919493929061290c565b906040600319830112610580576004356001600160a01b03811681036105805791602435906001600160401b0382116105805761298991600401612724565b9091565b6001600160401b0381116104cc5760051b60200190565b90601f818184011215610580578235926129bd8461298d565b936040926129cd845196876127d9565b818652602094858088019360051b8501019481861161058057868501935b8685106129fd57505050505050505090565b6001600160401b039085358281116105805787019084603f830112156105805789820135928311612a67578351612a3c848801601f19168c01826127d9565b838152858585850101116105805760008b8581968883970183860137830101528152019401936129eb565b60246000634e487b7160e01b81526041600452fd5b3360009081526000805160206131d0833981519152602090815260408083205490929060ff1615612aac57505050565b612ab533612df6565b9080845190612ac3826127be565b60428252848201926060368537825115612c505760308453825190600191821015612c505790607860218501536041915b818311612be257505050612ba0576048612b9c938693612b8093612b71985198899376020b1b1b2b9b9a1b7b73a3937b61d1030b1b1b7bab73a1604d1b8a860152612b48815180928c6037890191016128a0565b8401917001034b99036b4b9b9b4b733903937b6329607d1b6037840152518093868401906128a0565b010360288101875201856127d9565b5192839262461bcd60e51b8452600484015260248301906128c3565b0390fd5b60648486519062461bcd60e51b825280600483015260248201527f537472696e67733a20686578206c656e67746820696e73756666696369656e746044820152fd5b909192600f81166010811015612c3c576f181899199a1a9b1b9c1cb0b131b232b360811b901a612c128587612de5565b5360041c928015612c2857600019019190612af4565b634e487b7160e01b82526011600452602482fd5b634e487b7160e01b83526032600452602483fd5b634e487b7160e01b81526032600452602490fd5b60009080825260209060658252604092838120338252835260ff848220541615612c8e5750505050565b612c9733612df6565b91845190612ca4826127be565b60428252848201926060368537825115612c505760308453825190600191821015612c505790607860218501536041915b818311612d2957505050612ba0576048612b9c938693612b8093612b71985198899376020b1b1b2b9b9a1b7b73a3937b61d1030b1b1b7bab73a1604d1b8a860152612b48815180928c6037890191016128a0565b909192600f81166010811015612c3c576f181899199a1a9b1b9c1cb0b131b232b360811b901a612d598587612de5565b5360041c928015612c2857600019019190612cd5565b906000918083526065602052604083209160018060a01b03169182845260205260ff604084205416612da057505050565b8083526065602052604083208284526020526040832060ff1981541690557ff6391f5c32d9c69d2a47ea670b442974b53935d1edc7fd64eb21e047a839171b339380a4565b908151811015612338570160200190565b60405190606082018281106001600160401b038211176104cc57604052602a82526020820160403682378251156123385760309053815160019081101561233857607860218401536029905b808211612e96575050612e525790565b606460405162461bcd60e51b815260206004820152602060248201527f537472696e67733a20686578206c656e67746820696e73756666696369656e746044820152fd5b9091600f81166010811015612eef576f181899199a1a9b1b9c1cb0b131b232b360811b901a612ec58486612de5565b5360041c918015612eda576000190190612e42565b60246000634e487b7160e01b81526011600452fd5b60246000634e487b7160e01b81526032600452fd5b6000198114612f135760010190565b634e487b7160e01b600052601160045260246000fd5b80518210156123385760209160051b010190565b60405190612f4a826127a3565b6019825278027bbb732b91020b2323932b9b99033b2ba2837b634b1bc9d1603d1b6020830152565b602b9176024b73b30b634b21037bbb732b91030b2323932b9b99d1604d1b82526bffffffffffffffffffffffff199060601b1660178201520190565b15612fb65750565b60405162461bcd60e51b815260206004820152908190612b9c9060248301906128c3565b6001600160a01b0381811660009081526098602052604090205416908115613000575090565b905090565b818110613010575050565b60008155600101613005565b9190601f811161302b57505050565b612838926000526020600020906020601f840160051c83019310613057575b601f0160051c0190613005565b909150819061304a565b9181811061306e57505050565b6128389260005260206000209182019101613005565b8054600160401b8110156104cc576130a191600182018155612751565b819291549060031b91821b91600019901b1916179055565b3580151581036105805790565b156130cd57565b60405162461bcd60e51b81526020600482015260146024820152732737ba103a3432903837b634b1bc9037bbb732b960611b6044820152606490fd5b1561311057565b60405162461bcd60e51b81526020600482015260146024820152732737ba103a343290313ab1b5b2ba1037bbb732b960611b6044820152606490fd5b60009190829161319c604051809261317d602083019563319af33360e01b87526040602485015260648401906128c3565b6001600160a01b0391909116604483015203601f1981018352826127d9565b51906a636f6e736f6c652e6c6f675afa5056fe0bc14066c33013fe88f66e314e4cf150b0b2d4d6451a1a51dbbd1c27cd11de28ffdfc1249c027f9191656349feb0761381bb32c9f557e01f419fd08754bf5a1ba2646970667358221220131615a4ba454977fa886b2a4a0dd193e7ffa9388f003b470ced987d30c6cfb464736f6c63430008130033",
  "linkReferences": {},
  "deployedLinkReferences": {}
}