{
  "_format": "hh-sol-artifact-1",
  "contractName": "USDC",
  "sourceName": "contracts/USDC.sol",
  "abi": [
    {
      "inputs": [],
      "stateMutability": "nonpayable",
      "type": "constructor"
    },
    {
      "anonymous": false,
      "inputs": [
        {
          "indexed": true,
          "internalType": "address",
          "name": "owner",
          "type": "address"
        },
        {
          "indexed": true,
          "internalType": "address",
          "name": "spender",
          "type": "address"
        },
        {
          "indexed": false,
          "internalType": "uint256",
          "name": "value",
          "type": "uint256"
        }
      ],
      "name": "Approval",
      "type": "event"
    },
    {
      "anonymous": false,
      "inputs": [
        {
          "indexed": false,
          "internalType": "uint8",
          "name": "version",
          "type": "uint8"
        }
      ],
      "name": "Initialized",
      "type": "event"
    },
    {
      "anonymous": false,
      "inputs": [
        {
          "indexed": true,
          "internalType": "bytes32",
          "name": "role",
          "type": "bytes32"
        },
        {
          "indexed": true,
          "internalType": "bytes32",
          "name": "previousAdminRole",
          "type": "bytes32"
        },
        {
          "indexed": true,
          "internalType": "bytes32",
          "name": "newAdminRole",
          "type": "bytes32"
        }
      ],
      "name": "RoleAdminChanged",
      "type": "event"
    },
    {
      "anonymous": false,
      "inputs": [
        {
          "indexed": true,
          "internalType": "bytes32",
          "name": "role",
          "type": "bytes32"
        },
        {
          "indexed": true,
          "internalType": "address",
          "name": "account",
          "type": "address"
        },
        {
          "indexed": true,
          "internalType": "address",
          "name": "sender",
          "type": "address"
        }
      ],
      "name": "RoleGranted",
      "type": "event"
    },
    {
      "anonymous": false,
      "inputs": [
        {
          "indexed": true,
          "internalType": "bytes32",
          "name": "role",
          "type": "bytes32"
        },
        {
          "indexed": true,
          "internalType": "address",
          "name": "account",
          "type": "address"
        },
        {
          "indexed": true,
          "internalType": "address",
          "name": "sender",
          "type": "address"
        }
      ],
      "name": "RoleRevoked",
      "type": "event"
    },
    {
      "anonymous": false,
      "inputs": [
        {
          "indexed": true,
          "internalType": "address",
          "name": "from",
          "type": "address"
        },
        {
          "indexed": true,
          "internalType": "address",
          "name": "to",
          "type": "address"
        },
        {
          "indexed": false,
          "internalType": "uint256",
          "name": "value",
          "type": "uint256"
        }
      ],
      "name": "Transfer",
      "type": "event"
    },
    {
      "inputs": [],
      "name": "DEFAULT_ADMIN_ROLE",
      "outputs": [
        {
          "internalType": "bytes32",
          "name": "",
          "type": "bytes32"
        }
      ],
      "stateMutability": "view",
      "type": "function"
    },
    {
      "inputs": [
        {
          "internalType": "address",
          "name": "owner",
          "type": "address"
        },
        {
          "internalType": "address",
          "name": "spender",
          "type": "address"
        }
      ],
      "name": "allowance",
      "outputs": [
        {
          "internalType": "uint256",
          "name": "",
          "type": "uint256"
        }
      ],
      "stateMutability": "view",
      "type": "function"
    },
    {
      "inputs": [
        {
          "internalType": "address",
          "name": "spender",
          "type": "address"
        },
        {
          "internalType": "uint256",
          "name": "amount",
          "type": "uint256"
        }
      ],
      "name": "approve",
      "outputs": [
        {
          "internalType": "bool",
          "name": "",
          "type": "bool"
        }
      ],
      "stateMutability": "nonpayable",
      "type": "function"
    },
    {
      "inputs": [
        {
          "internalType": "address",
          "name": "account",
          "type": "address"
        }
      ],
      "name": "balanceOf",
      "outputs": [
        {
          "internalType": "uint256",
          "name": "",
          "type": "uint256"
        }
      ],
      "stateMutability": "view",
      "type": "function"
    },
    {
      "inputs": [],
      "name": "decimals",
      "outputs": [
        {
          "internalType": "uint8",
          "name": "",
          "type": "uint8"
        }
      ],
      "stateMutability": "pure",
      "type": "function"
    },
    {
      "inputs": [
        {
          "internalType": "address",
          "name": "spender",
          "type": "address"
        },
        {
          "internalType": "uint256",
          "name": "subtractedValue",
          "type": "uint256"
        }
      ],
      "name": "decreaseAllowance",
      "outputs": [
        {
          "internalType": "bool",
          "name": "",
          "type": "bool"
        }
      ],
      "stateMutability": "nonpayable",
      "type": "function"
    },
    {
      "inputs": [
        {
          "internalType": "bytes32",
          "name": "role",
          "type": "bytes32"
        }
      ],
      "name": "getRoleAdmin",
      "outputs": [
        {
          "internalType": "bytes32",
          "name": "",
          "type": "bytes32"
        }
      ],
      "stateMutability": "view",
      "type": "function"
    },
    {
      "inputs": [
        {
          "internalType": "bytes32",
          "name": "role",
          "type": "bytes32"
        },
        {
          "internalType": "address",
          "name": "account",
          "type": "address"
        }
      ],
      "name": "grantRole",
      "outputs": [],
      "stateMutability": "nonpayable",
      "type": "function"
    },
    {
      "inputs": [
        {
          "internalType": "bytes32",
          "name": "role",
          "type": "bytes32"
        },
        {
          "internalType": "address",
          "name": "account",
          "type": "address"
        }
      ],
      "name": "hasRole",
      "outputs": [
        {
          "internalType": "bool",
          "name": "",
          "type": "bool"
        }
      ],
      "stateMutability": "view",
      "type": "function"
    },
    {
      "inputs": [
        {
          "internalType": "address",
          "name": "spender",
          "type": "address"
        },
        {
          "internalType": "uint256",
          "name": "addedValue",
          "type": "uint256"
        }
      ],
      "name": "increaseAllowance",
      "outputs": [
        {
          "internalType": "bool",
          "name": "",
          "type": "bool"
        }
      ],
      "stateMutability": "nonpayable",
      "type": "function"
    },
    {
      "inputs": [
        {
          "internalType": "address",
          "name": "escrow",
          "type": "address"
        }
      ],
      "name": "initialize",
      "outputs": [],
      "stateMutability": "nonpayable",
      "type": "function"
    },
    {
      "inputs": [],
      "name": "name",
      "outputs": [
        {
          "internalType": "string",
          "name": "",
          "type": "string"
        }
      ],
      "stateMutability": "view",
      "type": "function"
    },
    {
      "inputs": [
        {
          "internalType": "bytes32",
          "name": "role",
          "type": "bytes32"
        },
        {
          "internalType": "address",
          "name": "account",
          "type": "address"
        }
      ],
      "name": "renounceRole",
      "outputs": [],
      "stateMutability": "nonpayable",
      "type": "function"
    },
    {
      "inputs": [
        {
          "internalType": "bytes32",
          "name": "role",
          "type": "bytes32"
        },
        {
          "internalType": "address",
          "name": "account",
          "type": "address"
        }
      ],
      "name": "revokeRole",
      "outputs": [],
      "stateMutability": "nonpayable",
      "type": "function"
    },
    {
      "inputs": [
        {
          "internalType": "bytes4",
          "name": "interfaceId",
          "type": "bytes4"
        }
      ],
      "name": "supportsInterface",
      "outputs": [
        {
          "internalType": "bool",
          "name": "",
          "type": "bool"
        }
      ],
      "stateMutability": "view",
      "type": "function"
    },
    {
      "inputs": [],
      "name": "symbol",
      "outputs": [
        {
          "internalType": "string",
          "name": "",
          "type": "string"
        }
      ],
      "stateMutability": "view",
      "type": "function"
    },
    {
      "inputs": [],
      "name": "totalSupply",
      "outputs": [
        {
          "internalType": "uint256",
          "name": "",
          "type": "uint256"
        }
      ],
      "stateMutability": "view",
      "type": "function"
    },
    {
      "inputs": [
        {
          "internalType": "address",
          "name": "to",
          "type": "address"
        },
        {
          "internalType": "uint256",
          "name": "amount",
          "type": "uint256"
        }
      ],
      "name": "transfer",
      "outputs": [
        {
          "internalType": "bool",
          "name": "",
          "type": "bool"
        }
      ],
      "stateMutability": "nonpayable",
      "type": "function"
    },
    {
      "inputs": [
        {
          "internalType": "address",
          "name": "from",
          "type": "address"
        },
        {
          "internalType": "address",
          "name": "to",
          "type": "address"
        },
        {
          "internalType": "uint256",
          "name": "amount",
          "type": "uint256"
        }
      ],
      "name": "transferFrom",
      "outputs": [
        {
          "internalType": "bool",
          "name": "",
          "type": "bool"
        }
      ],
      "stateMutability": "nonpayable",
      "type": "function"
    }
  ],
  "bytecode": "0x608080604052346100c1576000549060ff8260081c1661006f575060ff80821603610034575b60405161148b90816100c78239f35b60ff90811916176000557f7f26b83ff96e1f2b6a682f133852f6798a09c465da95921460cefb3847402498602060405160ff8152a138610025565b62461bcd60e51b815260206004820152602760248201527f496e697469616c697a61626c653a20636f6e747261637420697320696e697469604482015266616c697a696e6760c81b6064820152608490fd5b600080fdfe608060408181526004918236101561001657600080fd5b600092833560e01c91826301ffc9a714610c5c5750816306fdde0314610bb6578163095ea7b314610b8c57816318160ddd14610b6d57816323b872dd14610aa1578163248a9ca314610a765781632f2ff15d146109c9578163313ce567146109ad57816336568abe1461091b57816339509351146108b457816370a082311461087c57816391d148541461083557816395d89b4114610758578163a217fddf1461073d578163a457c2d714610695578163a9059cbb14610664578163c4d66de814610184578163d547741f14610141575063dd62ed3e146100f657600080fd5b3461013d578060031936011261013d5780602092610112610cfe565b61011a610d19565b6001600160a01b0391821683526034865283832091168252845220549051908152f35b5080fd5b9190503461018057806003193601126101805761017d91356101786001610166610d19565b93838752609760205286200154610d2f565b6110ac565b80f35b8280fd5b9050346101805760209081600319360112610660576101a1610cfe565b9084549160ff8360081c161591828093610653575b801561063c575b156105e257600193838560ff1983161789556105d1575b508551916101e183611058565b60088352672aa9a21021b7b4b760c11b86840152865161020081611058565b828152635553444360e01b8782015261022860ff8a5460081c16610223816113f5565b6113f5565b83519067ffffffffffffffff918281116105be5780610248603654611122565b96601f9788811161056c575b508a908d89841160011461050957926104fe575b5050600019600383901b1c191690881b176036555b80519182116104eb578190610293603754611122565b86811161049c575b50889086831160011461043b578b92610430575b5050600019600383901b1c191690861b176037555b6102d460ff895460081c166113f5565b87805260978652868820338952865260ff8789205416156103e8575b6001600160a01b03169182156103a6575060355464e8d4a510009182820180921161039357508588927fddf252ad1be2c89b69c2b068fc378daa952ba7f163c4a11628f55a4df523b3ef92603555848452603382528884208181540190558851908152a361035c578380f35b7f7f26b83ff96e1f2b6a682f133852f6798a09c465da95921460cefb38474024989261ff0019855416855551908152a13880808380f35b634e487b7160e01b895260119052602488fd5b865162461bcd60e51b815291820186905260248201527f45524332303a206d696e7420746f20746865207a65726f206164647265737300604482015260649150fd5b8780526097865286882033895286528688208560ff198254161790553333897f2f8788117e7eff1d82e926ec794901d17c78024a50270940304540a733656f0d8180a46102f0565b0151905038806102af565b60378c52898c208994509190601f1984168d5b8c828210610486575050841161046d575b505050811b016037556102c4565b015160001960f88460031b161c1916905538808061045f565b8385015186558c9790950194938401930161044e565b90915060378b52888b208680850160051c8201928b86106104e2575b918a91869594930160051c01915b8281106104d457505061029b565b8d81558594508a91016104c6565b925081926104b8565b634e487b7160e01b8a526041845260248afd5b015190503880610268565b603681528c81208c9550929190601f198516908e5b828210610555575050841161053c575b505050811b0160365561027d565b015160001960f88460031b161c1916905538808061052e565b8385015186558e979095019493840193018e61051e565b90915060368d528a8d208880850160051c8201928d86106105b5575b859493910160051c909101908b908f5b8382106105a757505050610254565b81558594508c91018f610598565b92508192610588565b634e487b7160e01b8b526041855260248bfd5b61ffff1916610101178755386101d4565b855162461bcd60e51b8152908101859052602e60248201527f496e697469616c697a61626c653a20636f6e747261637420697320616c72656160448201526d191e481a5b9a5d1a585b1a5e995960921b6064820152608490fd5b50303b1580156101bd5750600160ff8516146101bd565b50600160ff8516106101b6565b8380fd5b50503461013d578060031936011261013d5760209061068e610684610cfe565b602435903361115c565b5160018152f35b9050823461073a578260031936011261073a576106b0610cfe565b918360243592338152603460205281812060018060a01b03861682526020522054908282106106e95760208561068e85850387336112cc565b608490602086519162461bcd60e51b8352820152602560248201527f45524332303a2064656372656173656420616c6c6f77616e63652062656c6f77604482015264207a65726f60d81b6064820152fd5b80fd5b50503461013d578160031936011261013d5751908152602090f35b50503461013d578160031936011261013d578051908260375461077a81611122565b8085529060019081811690811561080d57506001146107b4575b5050506107a6826107b094038361108a565b5191829182610cd2565b0390f35b60378352602095507f42a7b7dd785cd69714a189dffb3fd7d7174edc9ece837694ce50f7078f7c31ae5b8284106107fa57505050826107b0946107a69282010194610794565b80548685018801529286019281016107de565b6107b097506107a69450602092508693915060ff191682840152151560051b82010194610794565b9050346101805781600319360112610180578160209360ff92610856610d19565b90358252609786528282206001600160a01b039091168252855220549151911615158152f35b50503461013d57602036600319011261013d5760209181906001600160a01b036108a4610cfe565b1681526033845220549051908152f35b82843461073a578160031936011261073a576108ce610cfe565b338252603460209081528383206001600160a01b03831684529052828220546024358101929083106109085760208461068e8585336112cc565b634e487b7160e01b815260118552602490fd5b8391503461013d578260031936011261013d57610936610d19565b90336001600160a01b03831603610952579061017d91356110ac565b608490602085519162461bcd60e51b8352820152602f60248201527f416363657373436f6e74726f6c3a2063616e206f6e6c792072656e6f756e636560448201526e103937b632b9903337b91039b2b63360891b6064820152fd5b50503461013d578160031936011261013d576020905160068152f35b90503461018057816003193601126101805735906109e5610d19565b9082845260976020526109fd60018286200154610d2f565b828452609760209081528185206001600160a01b039093168086529290528084205460ff1615610a2b578380f35b82845260976020528084208285526020528320600160ff1982541617905533917f2f8788117e7eff1d82e926ec794901d17c78024a50270940304540a733656f0d8480a43880808380f35b9050346101805760203660031901126101805781602093600192358152609785522001549051908152f35b8391503461013d57606036600319011261013d57610abd610cfe565b610ac5610d19565b6001600160a01b03821684526034602090815285852033865290529284902054604435939260018201610b01575b60208661068e87878761115c565b848210610b2a5750918391610b1f6020969561068e950333836112cc565b919394819350610af3565b606490602087519162461bcd60e51b8352820152601d60248201527f45524332303a20696e73756666696369656e7420616c6c6f77616e63650000006044820152fd5b50503461013d578160031936011261013d576020906035549051908152f35b50503461013d578060031936011261013d5760209061068e610bac610cfe565b60243590336112cc565b50503461013d578160031936011261013d5780519082603654610bd881611122565b8085529060019081811690811561080d5750600114610c03575050506107a6826107b094038361108a565b60368352602095507f4a11f94e20a93c79f6ec743a1954ec4fc2c08429ae2122118bf234b2185c81b85b828410610c4957505050826107b0946107a69282010194610794565b8054868501880152928601928101610c2d565b849134610180576020366003190112610180573563ffffffff60e01b81168091036101805760209250637965db0b60e01b8114908115610c9e575b5015158152f35b6301ffc9a760e01b14905083610c97565b60005b838110610cc25750506000910152565b8181015183820152602001610cb2565b60409160208252610cf28151809281602086015260208686019101610caf565b601f01601f1916010190565b600435906001600160a01b0382168203610d1457565b600080fd5b602435906001600160a01b0382168203610d1457565b600081815260209060978252604092838220338352835260ff848320541615610d585750505050565b835167ffffffffffffffff9190336060820184811183821017611044578752602a82528582019287368537825115611030576030845382519160019283101561101c576078602185015360295b838111610fb25750610f705790875194608086019086821090821117610f5c57885260428552868501956060368837855115610f4857603087538551821015610f485790607860218701536041915b818311610eda57505050610e9857938593610e7e93610e6f604894610e4676020b1b1b2b9b9a1b7b73a3937b61d1030b1b1b7bab73a1604d1b99610e949b519a8b978801525180926037880190610caf565b8401917001034b99036b4b9b9b4b733903937b6329607d1b603784015251809386840190610caf565b0103602881018552018361108a565b5162461bcd60e51b815291829160048301610cd2565b0390fd5b60648587519062461bcd60e51b825280600483015260248201527f537472696e67733a20686578206c656e67746820696e73756666696369656e746044820152fd5b909192600f81166010811015610f34576f181899199a1a9b1b9c1cb0b131b232b360811b901a610f0a85896113ce565b5360041c928015610f2057600019019190610df4565b634e487b7160e01b82526011600452602482fd5b634e487b7160e01b83526032600452602483fd5b634e487b7160e01b81526032600452602490fd5b634e487b7160e01b87526041600452602487fd5b60648789519062461bcd60e51b825280600483015260248201527f537472696e67733a20686578206c656e67746820696e73756666696369656e746044820152fd5b90600f81166010811015611008576f181899199a1a9b1b9c1cb0b131b232b360811b901a610fe083876113ce565b5360041c908015610ff45760001901610da5565b634e487b7160e01b88526011600452602488fd5b634e487b7160e01b89526032600452602489fd5b634e487b7160e01b87526032600452602487fd5b634e487b7160e01b86526032600452602486fd5b634e487b7160e01b86526041600452602486fd5b6040810190811067ffffffffffffffff82111761107457604052565b634e487b7160e01b600052604160045260246000fd5b90601f8019910116810190811067ffffffffffffffff82111761107457604052565b906000918083526097602052604083209160018060a01b03169182845260205260ff6040842054166110dd57505050565b8083526097602052604083208284526020526040832060ff1981541690557ff6391f5c32d9c69d2a47ea670b442974b53935d1edc7fd64eb21e047a839171b339380a4565b90600182811c92168015611152575b602083101461113c57565b634e487b7160e01b600052602260045260246000fd5b91607f1691611131565b6001600160a01b03908116918215611279571691821561122857600082815260336020526040812054918083106111d457604082827fddf252ad1be2c89b69c2b068fc378daa952ba7f163c4a11628f55a4df523b3ef95876020965260338652038282205586815220818154019055604051908152a3565b60405162461bcd60e51b815260206004820152602660248201527f45524332303a207472616e7366657220616d6f756e7420657863656564732062604482015265616c616e636560d01b6064820152608490fd5b60405162461bcd60e51b815260206004820152602360248201527f45524332303a207472616e7366657220746f20746865207a65726f206164647260448201526265737360e81b6064820152608490fd5b60405162461bcd60e51b815260206004820152602560248201527f45524332303a207472616e736665722066726f6d20746865207a65726f206164604482015264647265737360d81b6064820152608490fd5b6001600160a01b0390811691821561137d571691821561132d5760207f8c5be1e5ebec7d5bd14f71427d1e84f3dd0314c0f7b2291e5b200ac8c7c3b925918360005260348252604060002085600052825280604060002055604051908152a3565b60405162461bcd60e51b815260206004820152602260248201527f45524332303a20617070726f766520746f20746865207a65726f206164647265604482015261737360f01b6064820152608490fd5b60405162461bcd60e51b8152602060048201526024808201527f45524332303a20617070726f76652066726f6d20746865207a65726f206164646044820152637265737360e01b6064820152608490fd5b9081518110156113df570160200190565b634e487b7160e01b600052603260045260246000fd5b156113fc57565b60405162461bcd60e51b815260206004820152602b60248201527f496e697469616c697a61626c653a20636f6e7472616374206973206e6f74206960448201526a6e697469616c697a696e6760a81b6064820152608490fdfea264697066735822122023ffb455ee04f8d14de72dff9dc855f082c984611eeef07bfaad7145af233d0f64736f6c63430008130033",
  "linkReferences": {},
  "deployedLinkReferences": {}
}